:100000000C9463000C948B000C948B000C948B006C
:100010000C948B000C948B000C948B000C948B0034
:100020000C948B000C948B000C948B000C94BC08EB
:100030000C948B000C948B000C948B000C948B0014
:100040000C94F80A0C948B000C948A080C946408A5
:100050000C948B000C948B000C948B000C948B00F4
:100060000C948B000C948B000000000024002700EF
:100070002A0000000000250028002B0000000000DE
:1000800023002600290004040404040404040202DA
:100090000202020203030303030301020408102007
:1000A0004080010204081020010204081020000012
:1000B0000008000201000003040700000000000027
:1000C0000000CC0DA60B11241FBECFEFD8E0DEBF81
:1000D000CDBF23E0A2E4B2E001C01D92A030B20780
:1000E000E1F712E0A0E0B1E0ECEEF5E202C005902D
:1000F0000D92A234B107D9F710E0C2E6D0E004C0F7
:100100002197FE010E94CE10C136D107C9F70E9487
:10011000AA0B0C94E9120C940000CF92DF92EF929C
:10012000FF920F931F93CF93DF936C017A018B01A2
:10013000C0E0D0E0CE15DF0589F0D8016D918D01CA
:10014000D601ED91FC910190F081E02DC601099559
:10015000892B11F47E0102C02196ECCFC701DF91FB
:10016000CF911F910F91FF90EF90DF90CF90089566
:10017000089580E090E00895FC01538D448D252F73
:1001800030E0842F90E0821B930B541710F0CF9631
:10019000089501970895FC01918D828D981761F063
:1001A000828DDF01A80FB11D5D968C91928D9F5FAE
:1001B0009F73928F90E008958FEF9FEF0895FC0159
:1001C000918D828D981731F0828DE80FF11D858D0C
:1001D00090E008958FEF9FEF0895FC01918D228D9F
:1001E000892F90E0805C9F4F821B91098F73992724
:1001F000089584E492E00E94ED0021E0892B09F447
:1002000020E0822F0895FC01848DDF01A80FB11D2D
:10021000A35ABF4F2C91848D90E001968F7399273C
:10022000848FA689B7892C93A089B1898C91806429
:100230008C93938D848D981306C00288F389E02DEA
:1002400080818F7D80830895EF92FF920F931F939B
:10025000CF93DF93EC0181E0888F9B8D8C8D981379
:1002600005C0E889F989808185FD24C0F62E0B8DB3
:1002700010E00F5F1F4F0F731127E02E8C8DE812D7
:100280000CC00FB607FCFACFE889F989808185FF99
:10029000F5CFCE010E940301F1CF8B8DFE01E80F57
:1002A000F11DE35AFF4FF0820B8FEA89FB898081B1
:1002B000806207C0EE89FF896083E889F9898081BF
:1002C0008064808381E090E0DF91CF911F910F9156
:1002D000FF90EF900895CF93DF93EC01888D8823F2
:1002E000C9F0EA89FB89808185FD05C0A889B989A3
:1002F0008C9186FD0FC00FB607FCF5CF808185FF7E
:10030000F2CFA889B9898C9185FFEDCFCE010E94EB
:100310000301E7CFDF91CF9108950F931F93CF9300
:10032000DF93FC018785908981309105C9F01CF429
:10033000892B59F05CC0EF0182309105D9F1039708
:1003400009F055C002E310E01BC08285882309F440
:100350004EC0178216821186108681E090E009C097
:100360008681978101969783868388972CF483E012
:1003700090E0908B87873BC0108A1786128637C023
:10038000688579856F5F7F4F798768878B859C85C6
:10039000DC01ED91FC910480F581E02D099501507F
:1003A000110971F7888599858A3F910504F182E0EA
:1003B00090E01BC002E310E0688579856150710907
:1003C000798768878B859C85DC01ED91FC910480A1
:1003D000F581E02D09950150110971F788859985FE
:1003E0001816190624F081E090E0988B8F87DF9132
:1003F000CF911F910F910895CF93DF93EC017B83F1
:100400006A831D821C82188A1F868B859C85DC016D
:10041000ED91FC910190F081E02D09958B859C85F3
:10042000DC01ED91FC910480F581E02D60E070E04D
:10043000DF91CF910994CF93DF93EC018C859D855B
:100440008130910569F08230910551F1892B09F0D5
:1004500049C0E885F9858181882309F443C03EC0FD
:100460008E819F81DC01ED91FC910190F081E02D66
:1004700009952DEC3CEC4CEC5DE30E948F0EE88579
:10048000F98587FF07C082E090E09D878C8781E037
:10049000808328C08181811125C01D861C8622C0D1
:1004A0008E819F81DC01ED91FC910190F081E02D26
:1004B00009952AE939E949E95EE30E94C91018164D
:1004C0008CF4E885F98582819381019693838283F8
:1004D000AA85BB8581E01A968C93108281E090E01A
:1004E0009D878C87DF91CF910895FC017383628390
:1004F00015821482158614860895FC017383628325
:100500001582148208950F931F93CF93DF93FC01FC
:1005100084859585009719F0019751F144C0A28513
:10052000B38512960D911C91139786819781119630
:100530002C91211138C09801281B390B233031052B
:1005400094F1EF0181E090E0958784878085918523
:10055000DC01ED91FC910190F081E02D0995EA8597
:10056000FB8581E084831F830E831F861E861BC04C
:1005700086859785019697878687853691059CF0B5
:1005800015861486A285B38514961C928085918564
:10059000DC01ED91FC910280F381E02DDF91CF91A0
:1005A0001F910F910994DF91CF911F910F910895A1
:1005B000FC0173836283158214821782168215866A
:1005C00014860895EF92FF920F931F93CF93DF93BA
:1005D000EC01E885F98580819181181619060CF0E7
:1005E00050C040E050E0E885F9858081918148174E
:1005F00059070CF044C00480F581E02DCA01880F32
:10060000991FE80FF91F00811181EC81FD81208184
:10061000318160E070E06217730774F5CB01880FD9
:10062000991FA481B581A80FB91F0D90BC91A02D71
:10063000A017B107F1F48C01000F111F8217930767
:100640009CF464817581D80112977D01E60EF71E36
:10065000600F711FDB016D917C91D7016D937C93CD
:1006600001960E5F1F4FEACF21503109318320835D
:1006700003C06F5F7F4FCFCF4F5F5F4FB4CF11820B
:100680001082EE81FF8180819181181619066CF528
:1006900040E050E0EE81FF81808191814817590749
:1006A00014F50480F581E02DCA01880F991FE80F29
:1006B000F91F60817181EC81FD81808191812281AE
:1006C00033818217930764F49C01220F331FA481A6
:1006D000B581A20FB31F6D937C93019691838083A4
:1006E0004F5F5F4FD7CF118210828091E70288233E
:1006F000E1F31092E70200E010E0EC81FD818081DF
:1007000091810817190764F50480F581E02DC8016F
:10071000880F991FE80FF91FA081B18114962D91C0
:100720003C9115978A819B81820F931F15969C930C
:100730008E93149712962D913C91139782179307DD
:1007400064F015961C921E921497ED91FC911197EE
:100750000280F381E02DCD0109950F5F1F4FCDCFB2
:10076000DF91CF911F910F91FF90EF900895DC01E1
:100770001896ED91FC9119978081918122813381A6
:100780008217930764F49C01220F331FA481B58163
:10079000A20FB31F6D937C9301969183808380E0B9
:1007A0000895DC011696ED91FC9117978081918157
:1007B000228133818217930764F49C01220F331F37
:1007C000A481B581A20FB31F6D937C930196918391
:1007D000808380E00895FC01738362831582148214
:1007E000118A108A08958F929F92AF92BF92CF92F2
:1007F000DF92EF92FF92CF93DF93EC01888D998D7A
:100800008230910509F441C034F4009761F00197FA
:1008100009F471C0E3C08330910509F47DC00497E9
:1008200009F4B9C0DBC08E859F85DC01ED91FC9198
:100830000190F081E02D0995882329F01D8A1C8AFA
:1008400081E090E01FC0EA89FB898181882309F457
:10085000C5C08A859B85DC01ED91FC910190F081FA
:10086000E02D09956B017C012DEC3CEC4CEC5EE33A
:100870000E948F0E87FFB2C0CE82DF82E886F986A3
:1008800082E090E0998F888FA9C08A859B85DC01E2
:10089000ED91FC910190F081E02D09954B015C01F7
:1008A0002E813F81488559850E94EA0F6B017C01AA
:1008B00020E030E0A9010E94C910181624F0F7FAD0
:1008C000F094F7F8F0948E829F82A886B9862DEC7A
:1008D0003CEC4CE45DE3C701B6010E948F0E87FF3C
:1008E00007C083E090E0998F888F1F8A1E8A76C0A8
:1008F000198E188E73C08E859F85DC01ED91FC9159
:100900000190F081E02D0995882391F38C899D89D0
:1009100001969D8B8C8B2BC08A859B85DC01ED918C
:10092000FC910190F081E02D09952E813F81488551
:1009300059850E94EA0F6B017C0120E030E0A9019B
:100940000E94C910181624F0F7FAF094F7F8F09402
:100950002DEC3CEC4CE45DE3C701B6010E948F0E28
:1009600087FFC6CF8E899F8901969F8B8E8B899733
:10097000ACF184E090E0998F888F8C859D85DC01B7
:10098000ED91FC910190F081E02D0995EA89FB89B8
:1009900081E0878323C088899989DC01ED91FC91EE
:1009A0000190F081E02D09958823C1F0198E188EF1
:1009B000EA89FB8917828C859D85DC01ED91FC918C
:1009C0000280F381E02DDF91CF91FF90EF90DF90D7
:1009D000CF90BF90AF909F908F900994DF91CF916F
:1009E000FF90EF90DF90CF90BF90AF909F908F904F
:1009F0000895FC017383628315821482118E108E18
:100A00000895FC0173836283158214820895EF9226
:100A1000FF920F931F93CF93DF93CDB7DEB762970B
:100A20000FB6F894DEBF0FBECDBF8C01CB01F8012D
:100A300011821082138212821582148250E09E016C
:100A40002F5F3F4F7901B9010E944F0EF7010190CE
:100A50000020E9F73197AF014E195F09B701C801CE
:100A60000E94600962960FB6F894DEBF0FBECDBF3C
:100A7000DF91CF911F910F91FF90EF90089560E06B
:100A8000FC0182810C94080A61E0FC0182810C94D3
:100A9000080A0F931F93CF93DF93EC0160E08885E2
:100AA0000E94080A87E090E00197F1F761E08885ED
:100AB0000E94080A8FE090E00197F1F760E08885D6
:100AC0000E94080A2E813F813327F901E656FF4F25
:100AD0006491F901EA57FF4FE491F0E0EE0FFF1F38
:100AE000E458FF4F8591949100E412E42FE030E048
:100AF000462F0E94420B611571058105910549F051
:100B0000DC01CB010196A11DB11DBC01CD019F707F
:100B100003C060E070E0CB010E94940E20E030E062
:100B20004AE754E40E94571020E030E04AE754E4DA
:100B30000E94571020E030E040E05FE30E94F50E95
:100B40002A813B814C815D810E94F50EDF91CF911E
:100B50001F910F910895FC0182810E94DF0921E01D
:100B6000019709F020E0822F0895FC0182810E9404
:100B7000DF0921E0019709F020E0822F0895FC01B0
:100B8000778366838085882319F084810C94740AA6
:100B90000895FC0111821082138212821582148240
:100BA0006115710551F0FB0101900020E9F73197C3
:100BB000AF01461B570B0C9460090895CF92DF924A
:100BC000EF92FF921F93CF93DF93CDB7DEB7689775
:100BD0000FB6F894DEBF0FBECDBFC0904202D090DA
:100BE0004302C114D10409F417C17C0110924302DD
:100BF0001092420240E050E061E472E081EE92E047
:100C00000E9460091A8219821C821B821E821D8228
:100C1000B601CE0101960E9481098D819E81892BAA
:100C200049F067EA71E089819A810E94D91211E046
:100C3000892B09F010E0CE0101960E94980911233A
:100C400079F0D7011896ED91FC911997658176811D
:100C50004AE0CE0107960E94070562EB71E02DC0C5
:100C60001A8219821C821B821E821D82B601CE014D
:100C700001960E9481098D819E81892B51F06EEB36
:100C800071E089819A810E94D91211E0892B09F0C3
:100C900010E0CE0101960E949809112311F1D701AD
:100CA0001896ED91FC911997628173814AE0CE010B
:100CB00007960E9407056AEC71E0CE0101960E943A
:100CC000C905BE01695F7F4FCE0101960E944D09A3
:100CD0000E94C609CE0101960E949809CE0107968E
:100CE00093C01A8219821C821B821E821D82B60149
:100CF000CE0101960E9481098D819E81892B51F040
:100D000067ED71E089819A810E94D91211E0892BE7
:100D100009F010E0CE0101960E949809112309F410
:100D200067C0D7011896ED91FC91199787818111C1
:100D300003C068E871E002C06BE871E0CE01439641
:100D40000E94C905D7011896ED91FC9119978181F0
:100D5000811103C066E971E002C061E971E0CE0172
:100D60000D960E94C905D7011896ED91FC9119972F
:100D70008481811103C06BE971E002C06EE971E00A
:100D8000CE0107960E94C90561EE71E0CE01019681
:100D90000E94C905BE016D5E7F4FCE0101960E9483
:100DA0004D096DEE71E00E943409BE01635F7F4F13
:100DB0000E944D096DEE71E00E943409BE01695F29
:100DC0007F4F0E944D096FEE71E00E9434090E942E
:100DD000C609CE0101960E949809CE0107960E948D
:100DE0009809CE010D960E949809CE0143960CC039
:100DF00061EF71E0CE0101960E94C905CE01019616
:100E00000E94C609CE0101960E949809C6010E945F
:100E10009809C6010E94691168960FB6F894DEBF62
:100E20000FBECDBFDF91CF911F91FF90EF90DF906C
:100E3000CF9008958F929F92AF92BF92CF92DF9200
:100E4000EF92FF92CF93DF9300D000D000D0CDB7C8
:100E5000DEB70E94D30A4B015C0182E3C82ED12C7D
:100E6000E12CF12C0E94D30ADC01CB0188199909ED
:100E7000AA09BB09883E9340A105B10558F021E0BD
:100E8000C21AD108E108F10888EE880E83E0981EA6
:100E9000A11CB11CC114D104E104F10419F784E4CC
:100EA00092E00E94ED00892B81F084E492E00E94A0
:100EB000CB0089831A8241E050E0BE016F5F7F4F13
:100EC00081EE92E00E94F408EACF1A8219821C8215
:100ED0001B821E821D8261EE72E0CE0101960E948D
:100EE000810986E090E00E94D4107C0161E472E008
:100EF0000E94C905BE016F5F7F4FC7010E94810933
:100F0000F0924302E0924202CE0101960E949809BB
:100F100026960FB6F894DEBF0FBECDBFDF91CF91FE
:100F2000FF90EF90DF90CF90BF90AF909F908F9009
:100F300008950E94F90081110C941A0708950F93E7
:100F40001F93CF93DF93CDB7DEB72C970FB6F894EE
:100F5000DEBF0FBECDBF8C01DC0150968D919C9100
:100F600051978130910509F455C08230910509F4FB
:100F700065C0892B09F09DC016968D919C9117979D
:100F8000DC01ED91FC910190F081E02D0995882321
:100F900009F48FC0D8011A96ED91FC911B978481BA
:100FA00081111AC018968D919C911997DC01ED91D1
:100FB000FC910190F081E02D0995D8011A96ED91F0
:100FC000FC911B978581968101969683858381E0AC
:100FD000818381E090E069C061E072E0CE01079614
:100FE0000E94C90566E372E0CE0101960E94C90520
:100FF000BE01695F7F4FCE0101960E944D090E949C
:10100000C609CE0101960E949809CE0107960E945A
:1010100098094FC0F80186819781DC01ED91FC9120
:101020000190F081E02D0995811143C082E090E0AC
:10103000F801918B808B178616863BC0D8011696D7
:101040008D919C911797DC01ED91FC910190F081BD
:10105000E02D0995811126C0D8011A96ED91FC91D9
:101060001B97808181111EC0F801868597850196A6
:101070009787868785369105E4F0F801808591850C
:10108000DC01ED91FC910280F381E02D0995D801FE
:101090001A96ED91FC911B97118251961C921E920B
:1010A000509707C081E090E0D80151969C938E93B1
:1010B00050972C960FB6F894DEBF0FBECDBFDF91D0
:1010C000CF911F910F9108951F920F920FB60F921B
:1010D00011242F933F934F935F936F937F938F933D
:1010E0009F93AF93BF93EF93FF9384E492E00E94AA
:1010F0000301FF91EF91BF91AF919F918F917F91EC
:101100006F915F914F913F912F910F900FBE0F9074
:101110001F9018951F920F920FB60F9211242F93C4
:101120008F939F93EF93FF93E0915402F0915502B8
:101130008081E0915A02F0915B0282FD12C09081A1
:1011400080915D028F5F8F7320915E02821751F054
:10115000E0915D02F0E0EC5BFD4F958F80935D02C6
:1011600001C08081FF91EF919F918F912F910F90FE
:101170000FBE0F901F9018951F920F920FB60F92EF
:1011800011248F9381E08093E7028F910F900FBE1F
:101190000F901F9018950E94CB120F931F93CF931F
:1011A000DF93EC0188819981009729F02A813B81A6
:1011B0002617370788F48B016F5F7F4F0E9401125B
:1011C000009761F0998388831B830A832C813D817A
:1011D000232B11F4FC01108281E001C080E0DF913B
:1011E000CF911F910F910895EF92FF920F931F934C
:1011F000CF93DF93FC01248135816115710511F4D2
:1012000080E019C041155105A9F07B01EC018A016C
:10121000020F131FB8010E94CD08882389F328818B
:1012200039818C819D81B701820F931F0E94E21248
:101230001D830C8381E0DF91CF911F910F91FF906F
:10124000EF900895CF93DF93EC0188819981009707
:1012500011F00E946911198218821D821C821B8262
:101260001A82DF91CF910895CF93DF93EC0161153E
:10127000710561F0FB0101900020E9F73197AF01A2
:10128000461B570B0E94F408811103C0CE010E9437
:101290002209CE01DF91CF910895CF93DF93EC0126
:1012A000FB0144815581608171810E94F4088111A4
:1012B00003C0CE010E942209CE01DF91CF91089593
:1012C000EF92FF920F931F93CF93DF93EC017B017B
:1012D0008A01BA010E94CD08811104C0CE010E948A
:1012E000220907C01D830C83B701888199810E9460
:1012F000E212CE01DF91CF911F910F91FF90EF90FD
:101300000895CF93DF93EC01FB018617970761F0F7
:10131000608171816115710529F0448155810E94B8
:10132000600902C00E942209CE01DF91CF91089589
:10133000FC01808191810C946911833081F028F443
:10134000813099F08230A1F008958730A9F088307B
:10135000B9F08430D1F4809180008F7D03C08091FA
:1013600080008F7780938000089584B58F7702C0C6
:1013700084B58F7D84BD08958091B0008F7703C0C0
:101380008091B0008F7D8093B0000895CF93DF935C
:10139000FC01448155816081718184E492E00E9466
:1013A0008D00EC0142E050E06FE372E084E492E0F3
:1013B0000E948D008C0F9D1FDF91CF910895CF93D8
:1013C000DF93282F30E0F901E255FF4F8491F901B6
:1013D000E656FF4FD491F901EA57FF4FC491CC2351
:1013E00091F081110E949D09EC2FF0E0EE0FFF1F9C
:1013F000E458FF4FA591B491EC91ED2381E090E08A
:1014000021F480E002C080E090E0DF91CF91089568
:101410001F93CF93DF93282F30E0F901E255FF4F60
:101420008491F901E656FF4FD491F901EA57FF4F35
:10143000C491CC23C9F0162F81110E949D09EC2F75
:10144000F0E0EE0FFF1FEE58FF4FA591B4918FB75C
:10145000F894111105C09C91ED2FE095E92302C08D
:10146000EC91ED2BEC938FBFDF91CF911F910895FD
:10147000CF93DF9390E0FC01E656FF4F2491FC01EF
:10148000EA57FF4F8491882361F190E0880F991FFC
:10149000FC01E859FF4FC591D491FC01EE58FF4F74
:1014A000A591B491611109C09FB7F89488812095E6
:1014B00082238883EC912E230BC0623061F49FB7A6
:1014C000F8943881822F809583238883EC912E2B8A
:1014D0002C939FBF06C08FB7F894E8812E2B2883EA
:1014E0008FBFDF91CF9108951F93CF93DF93182F74
:1014F000EB0161E00E94380A209711F460E004C01B
:10150000CF3FD10539F461E0812FDF91CF911F9159
:101510000C94080AE12FF0E0E255FF4FE491E3302C
:10152000F9F048F4E130B9F0E230A1F584B5806219
:1015300084BDC8BD34C0E730E9F0E83019F1E430CB
:1015400049F580918000806280938000D0938B0069
:10155000C0938A0024C084B5806884BDC7BD1FC005
:1015600080918000806880938000D0938900C09330
:10157000880015C08091B00080688093B000C0934F
:10158000B3000DC08091B00080628093B000C09322
:10159000B40005C0C038D1050CF0B5CFAFCFDF9196
:1015A000CF911F9108953FB7F8948091F8029091E0
:1015B000F902A091FA02B091FB0226B5A89B05C0E2
:1015C0002F3F19F00196A11DB11D3FBFBA2FA92FC2
:1015D000982F8827820F911DA11DB11DBC01CD013F
:1015E00042E0660F771F881F991F4A95D1F708952B
:1015F0001F920F920FB60F9211242F933F938F9348
:101600009F93AF93BF938091F4029091F502A091C4
:10161000F602B091F7023091F30223E0230F2D3749
:1016200020F40196A11DB11D05C026E8230F0296E6
:10163000A11DB11D2093F3028093F4029093F50253
:10164000A093F602B093F7028091F8029091F9020C
:10165000A091FA02B091FB020196A11DB11D8093E9
:10166000F8029093F902A093FA02B093FB02BF91A3
:10167000AF919F918F913F912F910F900FBE0F903F
:101680001F901895CF92DF92EF92FF920F931F93C6
:10169000E82FF92F05C0015011092109310961F125
:1016A000908196239417B9F305C0015011092109BF
:1016B000310911F1908196239413F7CFC12CD12CCD
:1016C000E12CF12C0AC08FEFC81AD80AE80AF80AF0
:1016D0000C151D052E053F0579F0808186238417A2
:1016E00091F36C2D7D2D8E2D9F2D1F910F91FF90CD
:1016F000EF90DF90CF90089560E070E080E090E0A0
:101700001F910F91FF90EF90DF90CF900895CF93AE
:10171000DF93EC0160E070E08C810E94740A18860F
:10172000DF91CF91089502970C94870BCF93DF93AD
:10173000EC016E817F818C810E94740A81E0888730
:10174000DF91CF91089502970C94960B81EE92E071
:101750000C949809CF93DF9300D000D000D0CDB780
:10176000DEB7789484B5826084BD84B5816084BD21
:1017700085B5826085BD85B5816085BD80916E002F
:10178000816080936E001092810080918100826060
:10179000809381008091810081608093810080919D
:1017A00080008160809380008091B100846080938C
:1017B000B1008091B00081608093B00080917A0088
:1017C000846080937A0080917A00826080937A00AE
:1017D00080917A00816080937A0080917A0080689D
:1017E00080937A001092C10089E190E09093EB021F
:1017F0008093EA02F8941092800010928100109277
:1018000085001092840089E991E09093890080938B
:1018100088008091810088608093810080918100A0
:1018200085608093810080916F00826080936F005B
:10183000789488E090E00E94D4109E838D83FC0110
:1018400011821082138212821482178216821582EC
:1018500081E090E00E94D4102C01E0915402F091BC
:10186000550282E08083E0915002F0915102108293
:10187000E0915202F09153028FEC808310925C024F
:10188000E0915802F091590286E08083E09156027F
:10189000F0915702808180618083E0915602F0913F
:1018A0005702808188608083E0915602F091570250
:1018B000808180688083E0915602F0915702808198
:1018C0008F7D808360E071E081EE92E00E94CD0820
:1018D00040E050E061E472E081EE92E00E94600935
:1018E000109243021092420284E090E00E94D410D1
:1018F0003C0182E3C82E81E0D82EF301D182C08260
:1019000082E090E09383828361E00E94380A84E061
:1019100090E00E94D4104C018AE091E0F4019183A0
:10192000808389E090E09383828360E00E94380A9C
:101930008AE090E00E94D4107C0180E191E0F70100
:101940009183808380E090ECABEAB3E4828393835D
:10195000A483B58388E090E09783868387E090E056
:101960009187808761E00E94380A60E0F7018681F4
:101970000E94380A89E090E00E94D4108C0188E22D
:1019800091E0F80191838083D382C28283E090E06A
:101990009583848361E00E94380A86E191E0F80132
:1019A0009183808380E291E09383828380E890E05A
:1019B00097838683108684E090E00E94D4105C01B7
:1019C000FC01D182C08284E090E09383828361E055
:1019D0000E94380A82E090E00E94D410AC01FC0121
:1019E0005182408284E090E049835A830E94D4105F
:1019F0001C019AE3C92E91E0D92EF101D182C08257
:101A000085E090E09383828360E00E94380A84E05E
:101A100090E00E94D4109C01FC01D182C08286E03B
:101A200090E09383828360E02B833C830E94380A9A
:101A300082E190E00E94D4106C0180E491E0F60114
:101A40009183808371866086978286828D819E8154
:101A50009387828749815A815587448764E670E07D
:101A6000C6010E94EB03B60188EE92E00E94D1030A
:101A700081E190E00E94D4106C0188E491E0F601CD
:101A8000918380838D819E819687858714870387C4
:101A9000128669E170E0C6010E94FC01B60188EE81
:101AA00092E00E94D1038EE090E00E94D4108C015D
:101AB00080E591E0F801918380838D819E819187FB
:101AC0008087F782E682D386C28664E670E0C8012A
:101AD0000E947502B80188EE92E00E94D10380E175
:101AE00090E00E94D4108C0188E591E0F801918388
:101AF00080838D819E8193878287B186A08664E6EC
:101B000070E0C8010E94D802B80188EE92E00E94FD
:101B1000D1038AE090E00E94D4108C0180E691E02D
:101B2000F801918380838D819E8191878087578280
:101B3000468264E670E0C8010E947D02B80188EE2A
:101B400092E00E94D1038AE190E00E94D4108C01BF
:101B500088E691E0F801918380838D819E81938B4B
:101B6000828BB586A486378626862B813C81318B75
:101B7000208BF386E28664E670E0C8010E94F904D7
:101B8000B80188EE92E00E94D10388EE92E00E94B4
:101B9000E2020E949907F9CFEF92FF920F931F93F1
:101BA000CF93DF93E4E4F2E01382128288EE93E0B5
:101BB000A0E0B0E084839583A683B78380E791E0BB
:101BC0009183808385EC90E09587848784EC90E016
:101BD0009787868780EC90E0918B808B81EC90E0FA
:101BE000938B828B82EC90E0958B848B86EC90E0DB
:101BF000978B868B118E128E138E148E61E472E099
:101C000081EE92E00E94C905C8EED2E082E891E040
:101C1000998388831092E70286E090E00E94D410B6
:101C20008C018AE0E82EF12CF801F382E28284E153
:101C300090E00E94D410F801958384831182108271
:101C40001D830C8386E090E00E94D4108C01FC017F
:101C5000F382E28284E190E00E94D410F80195833F
:101C60008483118210821F830E8386E090E00E949D
:101C7000D4108C01FC01F382E28284E190E00E94A6
:101C8000D410F80195838483118210821987088704
:101C9000DF91CF911F910F91FF90EF900895453202
:101CA000510520F4423010F00C945A0EFB011082C2
:101CB000CB010895BB274A3031F4992322F4BDE2C9
:101CC000909581959F4F0C94660EBB27FB0155277D
:101CD000AA27880F991FAA1FA41710F0A41B839589
:101CE0005051B9F7A05DAA3308F0A95DA193009700
:101CF00079F7B111B1931192CB010C947F0EDC01F5
:101D0000FC01672F71917723E1F7329704C07C9132
:101D10006D9370836291AE17BF07C8F308950E9458
:101D2000D10E08F481E00895E89409C097FB3EF4D1
:101D300090958095709561957F4F8F4F9F4F992318
:101D4000A9F0F92F96E9BB279395F6958795779596
:101D50006795B795F111F8CFFAF4BB0F11F460FF56
:101D60001BC06F5F7F4F8F4F9F4F16C0882311F0AE
:101D700096E911C0772321F09EE8872F762F05C0C2
:101D8000662371F096E8862F70E060E02AF09A955D
:101D9000660F771F881FDAF7880F9695879597F952
:101DA0000895990F0008550FAA0BE0E8FEEF1616EC
:101DB0001706E807F907C0F012161306E407F5073F
:101DC00098F0621B730B840B950B39F40A2661F0B3
:101DD000232B242B252B21F408950A2609F4A14056
:101DE000A6958FEF811D811D08950E94080F0C9408
:101DF000790F0E946B0F38F00E94720F20F095232C
:101E000011F00C94620F0C94680F11240C94AD0F18
:101E10000E948A0F70F3959FC1F3950F50E0551FF4
:101E2000629FF001729FBB27F00DB11D639FAA272F
:101E3000F00DB11DAA1F649F6627B00DA11D661F7E
:101E4000829F2227B00DA11D621F739FB00DA11D9F
:101E5000621F839FA00D611D221F749F3327A00D59
:101E6000611D231F849F600D211D822F762F6A2FF5
:101E700011249F5750409AF0F1F088234AF0EE0F5A
:101E8000FF1FBB1F661F771F881F91505040A9F787
:101E90009E3F510580F00C94620F0C94AD0F5F3F94
:101EA000E4F3983ED4F3869577956795B795F795C3
:101EB000E7959F5FC1F7FE2B880F911D969587953B
:101EC00097F9089597F99F6780E870E060E00895BA
:101ED0009FEF80EC089500240A9416161706180642
:101EE0000906089500240A9412161306140605061E
:101EF0000895092E0394000C11F4882352F0BB0FAF
:101F000040F4BF2B11F460FF04C06F5F7F4F8F4F11
:101F10009F4F089557FD9058440F551F59F05F3F4C
:101F200071F04795880F97FB991F61F09F3F79F0FB
:101F300087950895121613061406551FF2CF46957D
:101F4000F1DF08C0161617061806991FF1CF8695FF
:101F50007105610508940895E894BB2766277727E3
:101F6000CB0197F908952F923F924F925F926F9213
:101F70007F928F929F92AF92BF92CF92DF92EF9219
:101F8000FF920F931F93CF93DF93CDB7DEB7CA1B9A
:101F9000DB0B0FB6F894DEBF0FBECDBF09942A88C5
:101FA000398848885F846E847D848C849B84AA846D
:101FB000B984C884DF80EE80FD800C811B81AA81FA
:101FC000B981CE0FD11D0FB6F894DEBF0FBECDBFC5
:101FD000ED0108955058BB27AA270E9402100C94C7
:101FE000790F0E946B0F38F00E94720F20F039F4C5
:101FF0009F3F19F426F40C94680F0EF4E095E7FB6C
:102000000C94620FE92F0E948A0F58F3BA176207E7
:1020100073078407950720F079F4A6F50C94AC0FAC
:102020000EF4E0950B2EBA2FA02D0B01B9019001F3
:102030000C01CA01A0011124FF27591B99F0593F37
:1020400050F4503E68F11A16F040A22F232F342F7F
:102050004427585FF3CF469537952795A795F040CD
:102060005395C9F77EF41F16BA0B620B730B840BE2
:10207000BAF09150A1F0FF0FBB1F661F771F881F9A
:10208000C2F70EC0BA0F621F731F841F48F48795F2
:1020900077956795B795F7959E3F08F0B0CF9395E4
:1020A000880F08F09927EE0F9795879508950E945D
:1020B0006B100C94790F0E94720F58F00E946B0FF6
:1020C00040F029F45F3F29F00C94620F51110C94F9
:1020D000AD0F0C94680F0E948A0F68F39923B1F337
:1020E000552391F3951B550BBB27AA27621773073E
:1020F000840738F09F5F5F4F220F331F441FAA1FD2
:10210000A9F335D00E2E3AF0E0E832D0915050408D
:10211000E695001CCAF72BD0FE2F29D0660F771F3B
:10212000881FBB1F261737074807AB07B0E809F021
:10213000BB0B802DBF01FF2793585F4F3AF09E3FA6
:10214000510578F00C94620F0C94AD0F5F3FE4F3EF
:10215000983ED4F3869577956795B795F7959F5FE9
:10216000C9F7880F911D9695879597F90895E1E035
:10217000660F771F881FBB1F621773078407BA0794
:1021800020F0621B730B840BBA0BEE1F88F7E095EF
:1021900008950E94D10E08F48FEF0895EE0FFF1FEF
:1021A0000590F491E02D0994CF93DF93823091054F
:1021B00010F482E090E0E091FE02F091FF0220E056
:1021C00030E0C0E0D0E0309711F1408151814817F4
:1021D0005907C0F04817590761F48281938120970D
:1021E00019F09B838A832BC09093FF028093FE0299
:1021F00026C02115310519F04217530718F49A012A
:10220000BE01DF01EF010280F381E02DDCCF21155B
:10221000310509F1281B390B2430310590F4129651
:102220008D919C9113976115710521F0FB019383AA
:10223000828304C09093FF028093FE02FD013296D8
:1022400044C0FD01E20FF31F8193919322503109A5
:102250002D933C933AC02091FC023091FD02232B38
:1022600041F420910201309103013093FD0220934B
:10227000FC0220910001309101012115310541F44A
:102280002DB73EB74091040150910501241B350B39
:10229000E091FC02F091FD02E217F307A0F42E1B7F
:1022A0003F0B2817390778F0AC014E5F5F4F2417BA
:1022B000350748F04E0F5F1F5093FD024093FC021C
:1022C0008193919302C0E0E0F0E0CF01DF91CF91E4
:1022D00008950F931F93CF93DF93009709F48CC059
:1022E000FC013297138212820091FE021091FF02CC
:1022F0000115110581F420813181820F931F2091F6
:10230000FC023091FD022817390779F5F093FD02A0
:10231000E093FC0271C0D80140E050E0AE17BF0767
:1023200050F412962D913C911397AD012115310572
:1023300009F1D901F3CF9D01DA0133832283608152
:102340007181860F971F8217930769F4EC0128812A
:102350003981260F371F2E5F3F4F318320838A81BB
:102360009B8193838283452B29F4F093FF02E093B2
:10237000FE0242C01396FC93EE931297ED01499131
:1023800059919E01240F351FE217F30771F48081E4
:102390009181840F951F029611969C938E93828152
:1023A000938113969C938E931297E0E0F0E0D8010E
:1023B00012968D919C911397009719F0F8018C015A
:1023C000F6CF8D919C9198012E5F3F4F820F931F06
:1023D0002091FC023091FD022817390769F43097EB
:1023E00029F41092FF021092FE0202C013821282A0
:1023F0001093FD020093FC02DF91CF911F910F918A
:102400000895A0E0B0E0E7E0F2E10C94B70FEC0132
:10241000009721F4CB010E94D410B8C0FC01E60F54
:10242000F71F9C0122503109E217F30708F4ACC0F2
:10243000D9010D911C91119706171707B0F00530BF
:10244000110508F49FC0C80104978617970708F480
:1024500099C002501109061B170B019311936D933C
:102460007C93CF010E9469118DC05B01A01AB10A53
:102470004C01800E911EA091FE02B091FF0240E03F
:1024800050E0E12CF12C109709F44AC0A815B905C9
:10249000D1F56D907C901197630182E0C80ED11C3C
:1024A000CA14DB0480F1A3014A195B096A0182E0C6
:1024B000C80ED11C1296BC9012971396AC91B5E041
:1024C000CB16D10440F0B282A38351834083D9015B
:1024D0006D937C930AC00E5F1F4FC301800F911F45
:1024E000F90191838083EB2DFA2FE114F10431F08F
:1024F000D7011396FC93EE93129744C0F093FF021A
:10250000E093FE023FC08D919C91119748175907A7
:1025100008F4AC017D0112960D90BC91A02DB3CFB3
:102520008091FC029091FD0288159905E1F446170F
:102530005707C8F48091000190910101009741F480
:102540008DB79EB74091040150910501841B950BF6
:10255000E817F907C8F4F093FD02E093FC02F901D3
:10256000718360830FC0CB010E94D4107C0100975F
:1025700059F0A801BE010E94D012CE010E9469113B
:10258000C70104C0CE0102C080E090E0CDB7DEB745
:10259000EEE00C94D30F81E090E0F8940C94E912F3
:1025A000FB01DC0102C001900D9241505040D8F770
:1025B0000895FB01DC018D91019080190110D9F380
:1025C000990B0895FB01DC0101900D920020E1F7C9
:1025D000089510E0C2E6D0E004C0FE010E94CE10D3
:0C25E0002196C336D107C9F7F894FFCF4D
:1025EC0000000003800000000000AB0500000000AC
:1025FC00490500000000960B870BBF05FEFF00008D
:10260C00A30B930B00000000CB08CB08CB080000F9
:10261C00000044053F0500000000B5050000000067
:10262C00EB039F0700000000FC018D01000000007F
:10263C0075021B0200000000D8028302000000009B
:10264C007D02DE0500000000F904F3030000000029
:10265C0024018D00BC006B01ED00CB00DF000000FD
:10266C000000D103B703E2026E6F5F616C61726DA3
:10267C0000627573790066726565006E6F5F636CDE
:10268C0065616E696E67007265715F6E75736572F8
:10269C0073007265715F6E75736572733A00726563
:1026AC00715F6E757361676573007265715F6E75CE
:1026BC0073616765733A007265715F7374617465F9
:1026CC00007265715F73746174653A28002C00297F
:1026DC00006E6F7420756E64657273746F6F642E08
:1026EC00005369207072656761206469207573639B
:1026FC006972652C20746F696C6574746520696EE1
:10270C002066617365206469206175746F2D707526
:10271C006C697A696100646973706C61793A000D57
:02272C000A00A1
:00000001FF
