:100000000C94E0000C9408010C9408010C94080175
:100010000C9408010C9408010C9408010C9408013C
:100020000C9408010C94A2070C9408010C949307FB
:100030000C9408010C9408010C9408010C9408011C
:100040000C9484090C9408010C9461070C943B07F0
:100050000C9408010C9408010C9408010C940801FC
:100060000C9408010C94080100407A10F35A00A087
:10007000724E18090010A5D4E80000E87648170071
:1000800000E40B54020000CA9A3B000000E1F505B1
:10009000000080969800000040420F000000A086FB
:1000A00001000000102700000000E803000000002D
:1000B0006400000000000A000000000001000000D1
:1000C00000002C76D888DC674F0823DFC1DFAE59EB
:1000D000E1B1B796E5E3E453C63AE651997696E87E
:1000E000E6C28426EB898C9B62ED407C6FFCEFBC02
:1000F0009C9F40F2BAA56FA5F490055A2AF75C932D
:100100006B6CF9676DC11BFCE0E40D47FEF520E662
:10011000B500D0ED902E0300943577050080841E45
:10012000080000204E0A000000C80C333333330FA0
:10013000986E12831141EF8D2114893BE65516CF3D
:10014000FEE6DB18D1844B381BF77C1D901DA4BB49
:10015000E424203284725E228100C9F124ECA1E5FE
:100160003D270000000023002600290000000000B9
:10017000240027002A0000000000250028002B0092
:10018000040404040404040402020202020203033D
:100190000303030301020408102040800102040845
:1001A00010200102040810200000000800020100D5
:1001B000000304070000000000000000D90BD50B6D
:1001C00011241FBECFEFD8E0DEBFCDBF11E0A0E00D
:1001D000B1E0EAE6F7E202C005900D92AC36B10755
:1001E000D9F722E0ACE6B1E001C01D92A935B20713
:1001F000E1F710E0CFEDD0E004C02197FE010E94AE
:100200008D11CE3DD107C9F70E94320A0C94A81374
:100210000C940000CF92DF92EF92FF920F931F9306
:10022000CF93DF936C017A018B01C0E0D0E0CE1553
:10023000DF0589F0D8016D918D01D601ED91FC911A
:100240000190F081E02DC6010995892B11F47E0102
:1002500002C02196ECCFC701DF91CF911F910F9182
:10026000FF90EF90DF90CF900895089580E090E0A8
:100270000895FC01538D448D252F30E0842F90E0AC
:10028000821B930B541710F0CF9608950197089591
:10029000FC01918D828D981761F0828DDF01A80F8E
:1002A000B11D5D968C91928D9F5F9F73928F90E0B0
:1002B00008958FEF9FEF0895FC01918D828D98171F
:1002C00031F0828DE80FF11D858D90E008958FEF5C
:1002D0009FEF0895FC01918D228D892F90E0805C25
:1002E0009F4F821B91098F73992708958DE891E0A4
:1002F0000E946A0121E0892B09F420E0822F0895F1
:10030000FC01848DDF01A80FB11DA35ABF4F2C91B2
:10031000848D90E001968F739927848FA689B78981
:100320002C93A089B1898C9180648C93938D848D5A
:10033000981306C00288F389E02D80818F7D808329
:100340000895EF92FF920F931F93CF93DF93EC01E9
:1003500081E0888F9B8D8C8D981305C0E889F98981
:10036000808185FD24C0F62E0B8D10E00F5F1F4F9E
:100370000F731127E02E8C8DE8120CC00FB607FC0E
:10038000FACFE889F989808185FFF5CFCE010E94F7
:100390008001F1CF8B8DFE01E80FF11DE35AFF4F75
:1003A000F0820B8FEA89FB898081806207C0EE8929
:1003B000FF896083E889F98980818064808381E096
:1003C00090E0DF91CF911F910F91FF90EF900895F2
:1003D000CF93DF93EC01888D8823C9F0EA89FB89EC
:1003E000808185FD05C0A889B9898C9186FD0FC0E3
:1003F0000FB607FCF5CF808185FFF2CFA889B989B8
:100400008C9185FFEDCFCE010E948001E7CFDF9177
:10041000CF910895EF92FF920F931F93CF93DF93A5
:100420007C01809130028823E1F310923002E701D1
:1004300000E010E0F70184819581081719070CF599
:10044000EE81FF8184819581D70112962D913C9197
:100450001397280F391F35832483428153818E815E
:100460009F81241735074CF015821482DC01ED9131
:10047000FC910280F381E02D09950F5F1F4F2296BA
:10048000D9CFDF91CF911F910F91FF90EF900895F9
:10049000FC0124813581293031057CF4F901339642
:1004A000EE0FFF1FE80FF91F718360832F5F3F4F2F
:1004B000FC013583248381E0089580E00895CF9383
:1004C000FC01C2818FEF8C0F883098F52CED35E060
:1004D000DB010E94721124EB30E040E050E00E940A
:1004E000F30FDA01C90182519D4FAF4FBF4F8E3ECE
:1004F000F2E09F0744F09C012B3C88E038072CF089
:100500002AEC38E002C02EEE32E028503109EC2F00
:10051000F0E0C901880F892F881F990BAF01440FA4
:10052000551FE40FF51FE159FE4F8183220F2095DF
:100530002283CF9108958F929F92AF92BF92CF92D4
:10054000DF92EF92FF92CF93DF93EC01888D998D2C
:10055000DC01ED91FC910190F081E02D09956B019A
:100560007C012C853D854E855F850E947A104B016C
:100570005C0120E030E0A9010E94591118165CF4DA
:1005800020E030E040E05FE3C501B4010E94591172
:1005900018165CF015C020E030E040E05FEBC501CC
:1005A000B4010E94CF0E87FF0BC0888D998DDC01AE
:1005B000ED91FC910190F081E02D09956B017C019A
:1005C000CC86DD86EE86FF86C701B601DF91CF912E
:1005D000FF90EF90DF90CF90BF90AF909F908F9063
:1005E00008950F931F93CF93DF93EC018B017B83CF
:1005F0006A831D821C821D8A1C8A8A899B89DC0170
:10060000ED91FC910190F081E02D09958A899B89FB
:10061000DC01ED91FC910480F581E02D60E070E05B
:1006200009958AE590E09F838E8381E090E09B8727
:100630008A876AE570E08A8D9B8D0E945F021F8F1A
:100640000E8FDF91CF911F910F910895FC0173835D
:100650006283158214820895FC017383628315827C
:10066000148208950E948A130F931F93CF93DF93F0
:10067000EC0188819981009729F02A813B81261716
:10068000370788F48B016F5F7F4F0E94C01200977D
:1006900061F0998388831B830A832C813D81232BFE
:1006A00011F4FC01108281E001C080E0DF91CF9164
:1006B0001F910F910895FC01808191810C94281263
:1006C00060E0FC0182810C94780861E0FC01828189
:1006D0000C9478080F931F93CF93DF93EC0160E0A5
:1006E00088850E94780887E090E00197F1F761E043
:1006F00088850E9478088FE090E00197F1F760E02C
:1007000088850E9478082E813F813327F901EC56B5
:10071000FE4F6491F901E058FE4FE491F0E0EE0FD6
:10072000FF1FEE59FE4F8591949100E412E42FE0F3
:1007300030E0462F0E94CE096115710581059105B3
:1007400049F0DC01CB010196A11DB11DBC01CD0119
:100750009F7003C060E070E0CB010E94D40E20E0E7
:1007600030E04AE754E40E94E71020E030E04AE736
:1007700054E40E94E71020E030E040E05FE30E9494
:10078000350F2A813B814C815D810E94350FDF91BD
:10079000CF911F910F910895FC0177836683808527
:1007A000882319F084810C9400090895EF92FF9238
:1007B0000F931F93CF93DF93FC0124813581611543
:1007C000710511F480E019C041155105A9F07B01B4
:1007D000EC018A01020F131FB8010E943403882321
:1007E00089F3288139818C819D81B701820F931F04
:1007F0000E94A1131D830C8381E0DF91CF911F9193
:100800000F91FF90EF900895CF93DF93EC018881D3
:100810009981009711F00E942812198218821D8276
:100820001C821B821A82DF91CF910895CF93DF93B0
:10083000EC01FB0144815581608171810E94D603E6
:10084000811103C0CE010E940404CE01DF91CF913B
:100850000895EF92FF920F931F93CF93DF93EC01D4
:100860007B018A01BA010E943403811104C0CE01C8
:100870000E94040407C01D830C83B70188819981FD
:100880000E94A113CE01DF91CF911F910F91FF9094
:10089000EF900895CF93DF93EC016115710559F046
:1008A000FB0101900020E9F73197AF01461B570B80
:1008B0000E94290402C00E940404CE01DF91CF915E
:1008C0000895CF93DF93EC01FB018617970761F042
:1008D000608171816115710529F0448155810E9403
:1008E000290402C00E940404CE01DF91CF91089533
:1008F000CF92DF92EF92FF921F93CF93DF9300D0BE
:1009000000D000D0CDB7DEB7E0908B01F0908C0125
:10091000E114F10409F487C06C0110928C0110926B
:100920008B0168E671E08AE292E00E944A041A8232
:1009300019821C821B821E821D82B701CE01019684
:100940000E9461048D819E81892B49F06AE571E0E6
:1009500089819A810E94981311E0892B09F010E097
:10096000CE0101960E945B03112341F0D601189637
:10097000ED91FC91199781E090E026C01A821982CE
:100980001C821B821E821D82B701CE0101960E942D
:1009900061048D819E81892B51F06DE571E0898123
:1009A0009A810E94981311E0892B09F010E0CE0182
:1009B00001960E945B03112351F0D6011896ED9128
:1009C000FC91199782E090E09183808326C01A827F
:1009D00019821C821B821E821D82B701CE010196E4
:1009E0000E9461048D819E81892B51F060E671E047
:1009F00089819A810E94981311E0892B09F010E0F7
:100A0000CE0101960E945B03112339F0D60118969E
:100A1000ED91FC91199711821082C7010E945B032E
:100A2000C7010E94281226960FB6F894DEBF0FBEAB
:100A3000CDBFDF91CF911F91FF90EF90DF90CF90CE
:100A40000895FC0111821082138212821582148291
:100A50006115710551F0FB0101900020E9F7319714
:100A6000AF01461B570B0C94290408958F929F9257
:100A7000AF92BF92EF92FF920F931F93CF93DF93AA
:100A8000CDB7DEB7AD970FB6F894DEBF0FBECDBFC2
:100A90007C01DC0154968D919C9155978130910594
:100AA00011F18230910509F4D7C0892B09F04DC1AD
:100AB0005696ED91FC9157970081118101301105F7
:100AC00009F043C152968D919C915397DC01ED91B1
:100AD000FC910480F581E02D6EEF70E00995F7013F
:100AE000158B048BB6C0D7015696ED91FC915797A4
:100AF000808191818230910529F455969C938E9343
:100B0000549723C1892BE9F4F70182899389DC0189
:100B1000ED91FC910480F581E02D60E070E0099595
:100B20008AE590E0F701978386836AE570E0828D1D
:100B3000938D0E945F02D70155961C921E92549786
:100B400004C1C7010E949B024B015C01F701868131
:100B5000978119A618A61BA61AA61DA61CA64AE0D0
:100B6000BE016F5F7F4F0E94340CBE016F5F7F4FED
:100B7000CE0188960E944A041BA21AA21DA21CA2A2
:100B80001FA21EA28E010F5F1F4F22E044E0C5018D
:100B9000B4010E94140CBC01CE0182960E944A044A
:100BA00063E671E0C8010E942105BE016E5D7F4FC2
:100BB000C8010E9416040E946608BE01685D7F4F4E
:100BC0000E9416040E944D08C8010E945B03CE01DA
:100BD00082960E945B03CE0188960E945B03D70138
:100BE00050962D913C9151972F5F3F4F51963C93DA
:100BF0002E9350975E966D917C915F9784EF91E074
:100C00000E945E11261737070CF49FC0F70166811A
:100C10007781828D938D0E945F02D70116964D9148
:100C20005C911797CA010197833B910558F01A967A
:100C30002D913C911B973195219531091B963C9341
:100C40002E931A97F70182859385840F951F9783BA
:100C50008683118A108A79C0D7015696ED91FC914E
:100C60005797808191810097D1F452968D919C91F4
:100C70005397DC01ED91FC910480F581E02D60E05B
:100C800070E009956AE570E0F701828D938D0E940E
:100C90005F02D70155961C921E92549706C0813070
:100CA000910519F4F701958B848BC7010E949B0273
:100CB0004B015C01D70116968D919C91179719A64F
:100CC00018A61BA61AA61DA61CA64AE0BE016F5FA9
:100CD0007F4F0E94340CBE016F5F7F4FCE0188961C
:100CE0000E944A041BA21AA21DA21CA21FA21EA29D
:100CF0008E010F5F1F4F22E044E0C501B4010E9446
:100D0000140CBC01CE0182960E944A0463E671E095
:100D1000C8010E942105BE016E5D7F4FC8010E947F
:100D200016040E946608BE01685D7F4F0E9416048B
:100D30000E944D08C8010E945B03CE0182960E946A
:100D40005B03CE0188960E945B03AD960FB6F894C4
:100D5000DEBF0FBECDBFDF91CF911F910F91FF90EE
:100D6000EF90BF90AF909F908F9008958F929F9239
:100D7000AF92BF92CF92DF92EF92FF92CF93DF9329
:100D800000D000D000D0CDB7DEB70E945F094B0184
:100D90005C0182E3C82ED12CE12CF12C0E945F096A
:100DA000DC01CB0188199909AA09BB09883E934047
:100DB000A105B10558F021E0C21AD108E108F108F7
:100DC00088EE880E83E0981EA11CB11CC114D104CA
:100DD000E104F10419F78DE891E00E946A01892B82
:100DE00081F08DE891E00E94480189831A8241E0F8
:100DF00050E0BE016F5F7F4F8AE292E00E94D6030F
:100E0000EACF1A8219821C821B821E821D826AE22C
:100E100072E0CE0101960E94610486E090E00E949B
:100E200093117C0168E671E00E942105BE016F5FAD
:100E30007F4FC7010E946104F0928C01E0928B0108
:100E4000CE0101960E945B0326960FB6F894DEBF92
:100E50000FBECDBFDF91CF91FF90EF90DF90CF908D
:100E6000BF90AF909F908F9008950E94760181115E
:100E70000C94B60608951F920F920FB60F9211248C
:100E80002F933F934F935F936F937F938F939F9392
:100E9000AF93BF93EF93FF938DE891E00E948001A1
:100EA000FF91EF91BF91AF919F918F917F916F9142
:100EB0005F914F913F912F910F900FBE0F901F9018
:100EC00018951F920F920FB60F9211242F938F93A4
:100ED0009F93EF93FF93E0919D01F0919E0180819C
:100EE000E091A301F091A40182FD12C09081809154
:100EF000A6018F5F8F732091A701821751F0E091B7
:100F0000A601F0E0E357FE4F958F8093A60101C044
:100F10008081FF91EF919F918F912F910F900FBE44
:100F20000F901F9018951F920F920FB60F921124D9
:100F30008F9381E0809330028F910F900FBE0F90BE
:100F40001F9018951F920F920FB60F9211242F9396
:100F50003F934F935F936F937F938F939F93AF9341
:100F6000BF93EF93FF9380916D018F5F80936D012D
:100F700020916D0180916E0190E0FC01EE0FFF1F4A
:100F80008E0F9F1FFC01E159FE4F818128130FC076
:100F900080916E0190E0FC01EE0FFF1F8E0F9F1FEE
:100FA000FC01E159FE4F82818093B20065C020911F
:100FB0006D0180916E0190E0FC01EE0FFF1F8E0F1E
:100FC0009F1FFC01E159FE4F8181821708F054C038
:100FD00080916E0190E0FC01EE0FFF1F8E0F9F1FAE
:100FE000FC01E159FE4F808185FF10C080916E01A8
:100FF00090E0FC01EE0FFF1F8E0F9F1FFC01E159D7
:10100000FE4F808160E08F710E94780880916E01B0
:101010008F5F80936E0110926D011092B2008091EB
:101020006E01882319F180916E018930F8F4809166
:101030006E0190E0FC01EE0FFF1F8E0F9F1FFC0161
:10104000E159FE4F808185FF17C080916E0190E0CD
:10105000FC01EE0FFF1F8E0F9F1FFC01E159FE4F99
:10106000808161E08F710E94780806C080916E01D6
:10107000893010F010926E01FF91EF91BF91AF9106
:101080009F918F917F916F915F914F913F912F91A0
:101090000F900FBE0F901F901895CF93DF93FC0118
:1010A00044815581608171818DE891E00E940A013F
:1010B000EC0142E050E066E671E08DE891E00E94CC
:1010C0000A018C0F9D1FDF91CF910895CF93DF937D
:1010D000EC0142E050E069E671E00E94D603811124
:1010E00003C0CE010E940404CE01DF91CF91089588
:1010F00090E0FC01E855FE4F3491FC01EC56FE4FA8
:101100002491FC01E058FE4FE491EE2309F43BC02A
:10111000332339F1333091F038F43130A9F03230E3
:1011200001F584B58F7D12C0373091F03830A1F0D1
:101130003430B9F4809180008F7D03C080918000AD
:101140008F77809380000DC084B58F7784BD09C0F0
:101150008091B0008F7703C08091B0008F7D809325
:10116000B000F0E0EE0FFF1FEA58FE4FA591B491DA
:101170008FB7F894EC91611103C020952E2301C024
:101180002E2B2C938FBF0895CF93DF9390E0FC011B
:10119000EC56FE4F2491FC01E058FE4F84918823C9
:1011A00061F190E0880F991FFC01E459FE4FC59151
:1011B000D491FC01EA58FE4FA591B491611109C088
:1011C0009FB7F8948881209582238883EC912E2301
:1011D0000BC0623061F49FB7F8943881822F8095FC
:1011E00083238883EC912E2B2C939FBF06C08FB74F
:1011F000F894E8812E2B28838FBFDF91CF9108953B
:101200001F93CF93DF93182FEB0161E00E94C40876
:10121000209711F460E004C0CF3FD10539F461E0BC
:10122000812FDF91CF911F910C947808E12FF0E08E
:10123000E855FE4FE491E330F9F048F4E130B9F0BD
:10124000E230A1F584B5806284BDC8BD34C0E7300A
:10125000E9F0E83019F1E43049F5809180008062CE
:1012600080938000D0938B00C0938A0024C084B503
:10127000806884BDC7BD1FC0809180008068809356
:101280008000D0938900C093880015C08091B00081
:1012900080688093B000C093B3000DC08091B0000F
:1012A00080628093B000C093B40005C0C038D105FF
:1012B0000CF0B5CFAFCFDF91CF911F9108953FB71D
:1012C000F8948091510290915202A0915302B091F2
:1012D000540226B5A89B05C02F3F19F00196A11D09
:1012E000B11D3FBFBA2FA92F982F8827820F911DBC
:1012F000A11DB11DBC01CD0142E0660F771F881F03
:10130000991F4A95D1F708951F920F920FB60F9229
:1013100011242F933F938F939F93AF93BF9380910B
:101320004D0290914E02A0914F02B0915002309127
:101330004C0223E0230F2D3720F40196A11DB11D8F
:1013400005C026E8230F0296A11DB11D20934C0273
:1013500080934D0290934E02A0934F02B09350029F
:101360008091510290915202A0915302B091540287
:101370000196A11DB11D8093510290935202A0933A
:101380005302B0935402BF91AF919F918F913F91BF
:101390002F910F900FBE0F901F901895CF92DF9254
:1013A000EF92FF920F931F93E82FF92F05C0015082
:1013B00011092109310961F1908196239417B9F33C
:1013C00005C0015011092109310911F190819623BD
:1013D0009413F7CFC12CD12CE12CF12C0AC08FEF44
:1013E000C81AD80AE80AF80A0C151D052E053F058B
:1013F00079F080818623841791F36C2D7D2D8E2DBD
:101400009F2D1F910F91FF90EF90DF90CF90089547
:1014100060E070E080E090E01F910F91FF90EF900E
:10142000DF90CF900895CF93DF93EC0160E070E000
:101430008C810E9400091886DF91CF910895029750
:101440000C94130ACF93DF93EC016E817F818C8122
:101450000E94000981E08887DF91CF91089502976B
:101460000C94220A789484B5826084BD84B581602E
:1014700084BD85B5826085BD85B5816085BD80915F
:101480006E00816080936E001092810080918100D7
:1014900082608093810080918100816080938100CF
:1014A000809180008160809380008091B100846091
:1014B0008093B1008091B00081608093B0008091F2
:1014C0007A00846080937A0080917A0082608093B1
:1014D0007A0080917A00816080937A0080917A000E
:1014E000806880937A001092C10089E190E0909327
:1014F000340280933302F89410928000109281009D
:10150000109285001092840089E991E090938900FF
:101510008093880080918100886080938100809111
:10152000810085608093810080916F00826080934C
:101530006F007894109236021092350282E090E0AB
:101540000E9493117C01DC011D921C928AE090E0C4
:101550000E9493118C018AE091E0F80191838083CD
:1015600080E090ECABEAB3E482839383A483B583F9
:1015700087E090E09783868388E090E0918780877A
:1015800061E00E94C40860E0D80116968C910E9428
:10159000C40883E090E00E9493116C0180916C017B
:1015A000883030F48F5F80936C01F601828303C032
:1015B000D60112961C9283E090E0F601918380831D
:1015C00080918A01811123C080E090E03BE027E513
:1015D000FC01E159FE4F3483258303968831910540
:1015E000B9F78EE38093700110926E0110926D0135
:1015F000109270001092B00082E08093B1001092BF
:10160000B20081E087BB8093700080938A01D6018D
:1016100012968C918823A1F061E083E00E94C408B7
:10162000D6011296EC91F0E0CF01880F991FE80FD8
:10163000F91FE159FE4F8081807E83608062808344
:1016400089E090E00E9493115C018AE291E0F5014B
:101650009183808380E191E09383828385E090E0B1
:101660009583848361E00E94C40888E191E0D501FC
:1016700011969C938E9382E291E013969C938E93A5
:10168000129718961C92189717961C921E921697EE
:1016900081E090E00E9493114C01E0919D01F09156
:1016A0009E0182E08083E0919901F0919A0110827D
:1016B000E0919B01F0919C018FEC80831092A50139
:1016C000E091A101F091A20186E08083E0919F0169
:1016D000F091A001808180618083E0919F01F09171
:1016E000A001808188608083E0919F01F091A0013A
:1016F000808180688083E0919F01F091A0018081CA
:101700008F7D808360E071E08AE292E00E94340382
:1017100068E671E08AE292E00E944A0410928C012D
:1017200010928B018AE090E00E949311EC0184E317
:1017300091E099838883F986E8869F828E8269E1A9
:1017400070E0CE010E942603BE0181E392E00E9478
:10175000480280E290E00E949311EC018CE391E05A
:101760009983888380E090E0A0ECBFE38C879D871D
:10177000AE87BF87FF8AEE8ABB8AAA8A198F088F35
:10178000DB8ECA8E9D8E8C8E62E370E0CE010E944D
:10179000F102BE0181E392E00E94480281E392E0FF
:1017A0000E940A020E943507F9CF8AE292E00C9467
:1017B0005B03EDE8F1E01382128288EE93E0A0E093
:1017C000B0E084839583A683B78384E491E091831A
:1017D000808385EC90E09587848784EC90E0978700
:1017E000868780EC90E0918B808B81EC90E0938BEE
:1017F000828B82EC90E0958B848B86EC90E0978BCB
:10180000868B118E128E138E148E68E671E08AE23A
:1018100092E00E94210586E591E090933202809348
:101820003102109230020895EF920F931F93CF93DD
:10183000DF93E80147FD02C034E001C034E1E42F4A
:10184000440FFF0BF7FF03C0F195E195F109E32E7B
:10185000022F2E2FAE010E94590CCE01DF91CF91A5
:101860001F910F91EF900895BB274A3031F49923CF
:1018700022F4BDE2909581959F4F0C94400CBB27BC
:10188000FB015527AA27880F991FAA1FA41710F03C
:10189000A41B83955051B9F7A05DAA3308F0A95D48
:1018A000A193009779F7B111B1931192CB010C94E8
:1018B000BF0E4F925F926F927F929F92AF92BF92B4
:1018C000CF92DF92EF92FF920F931F93CF93DF930C
:1018D000CDB7DEB729970FB6F894DEBF0FBECDBFE8
:1018E0006A01122FB02E2BE3201720F0FF24F3946F
:1018F000F00E02C0BCE3FB2E0F2D27E0AE014F5FC0
:101900005F4F0E94E70DAC018981982F997091304B
:1019100031F0E1FC06C0E0FE06C090E205C09DE2A9
:1019200003C09BE201C090E0EE2DE07183FF3CC05C
:10193000911102C083E001C084E0811718F4212FC7
:10194000281B01C020E0E1110BC0F601822F30E21C
:10195000882319F031938150FBCFC20ED11C20E0B7
:10196000992329F0D6019C93F60131966F01C601A7
:101970000396E2FE0AC03EE4D6013C9341E4119690
:101980004C93119712963C9306C03EE6F6013083C5
:1019900041E641833283FC01322F40E2332309F4D4
:1019A00042C041933150FACF82FF44C0911102C02E
:1019B00083E001C084E0811718F4212F281B01C0A7
:1019C00020E0E1110BC0F601822F30E2882319F0EC
:1019D00031938150FBCFC20ED11C20E0992329F016
:1019E000D6019C93F60131966F01C6010396E2FE83
:1019F0000BC039E4D6013C933EE411963C93119719
:101A000036E412963C9307C039E6F60130833EE691
:101A1000318336E63283FC01322F40E2332319F062
:101A200041933150FBCFFC01E20FF11D10828EEF8C
:101A30009FEFB7C0F1E0911101C0F0E06F2F70E0AF
:101A40001416150624F49A012F5F3F4F02C021E0BF
:101A500030E0260F371FBB2029F06B2D70E06F5F41
:101A60007F4F02C060E070E0260F371F612F70E0EB
:101A7000261737071CF4121B212F01C020E03E2D32
:101A8000387159F4D601322F60E2332319F06D9387
:101A90003150FBCFC20ED11C20E0FF2331F0D60124
:101AA0009C93B6016F5F7F4F6B01E1110BC0F60194
:101AB000922F30E3992319F031939150FBCFC20E4E
:101AC000D11C20E09F2D940F3A81782F7071A72EA2
:101AD00084FF03C0313309F49150191624F499306E
:101AE00018F098E001C091E0E42F852F57FF02C065
:101AF000E0E080E06E2F782FE0E0F0E0AEE29A2E9A
:101B00003A01691A71082A01461A570A0B2D10E08A
:101B10001195019511096F3F8FEF780729F4D601D0
:101B20009C92C60101966C014617570784F0661611
:101B300077066CF47F01E40CF51CA1E0B0E0AC0F7B
:101B4000BD1FEA0EFB1ED7011196BC9002C090E3A8
:101B5000B92E615071093196C60101967C0160175A
:101B6000710724F0D601BC926C01D5CF64177507BC
:101B700041F4363320F4353321F4A11002C081E35F
:101B8000B82EF601B082F701822F90E2882319F077
:101B900091938150FBCFF701E20FF11D108280E09D
:101BA00090E029960FB6F894DEBF0FBECDBFDF914F
:101BB000CF911F910F91FF90EF90DF90CF90BF904A
:101BC000AF909F907F906F905F904F9008952830D6
:101BD00008F027E03327DA01990F311D87FD916066
:101BE00000966105710539F432602E5F3D9330E354
:101BF0002A95E1F708959F3F30F08038710561051F
:101C000009F03C5F3C5F3D93913008F08068911D86
:101C1000DF93CF931F930F93FF92EF92192F987F2B
:101C20009695E92F96959695E90FFF27EE53FF4F6E
:101C300099273327EE24FF24A701E7010590089494
:101C4000079428F4360FE71EF81E491F511D660F32
:101C5000771F881F991F0694A1F70590079428F411
:101C6000E70EF81E491F561FC11D770F881F991FC9
:101C7000661F0694A1F70590079428F4F80E491FF3
:101C8000561FC71FD11D880F991F661F771F069407
:101C9000A1F70590079420F4490F561FC71FD81FBE
:101CA000990F661F771F881F0694A9F784911095D6
:101CB000177041F0D695C79557954795F794E794D7
:101CC0001A95C1F7E8E6F0E0689415901591359102
:101CD0006591959105907FE27395E118F10A430BA8
:101CE000560BC90BD009C0F7E10CF11E431F561F5C
:101CF000C91FD01D7EF4703311F48A95E6CFE894A5
:101D0000015030F0080F0AF40027021708F4202FC2
:101D10002395022F7A3328F079E37D932A95E9F70A
:101D200010C07D932A9589F6069497956795379507
:101D300017951794E118F10A430B560BC90BD009FC
:101D400098F023957E9173957A3308F070E37C9335
:101D50002013B8F77E9170617D9330F0839571E325
:101D60007D9370E32A95E1F71124EF90FF900F9196
:101D70001F91CF91DF91992787FD90950895DC0100
:101D8000FC01672F71917723E1F7329704C07C91B2
:101D90006D9370836291AE17BF07C8F308950E94D8
:101DA000110F08F481E00895E89409C097FB3EF410
:101DB00090958095709561957F4F8F4F9F4F992398
:101DC000A9F0F92F96E9BB279395F6958795779516
:101DD0006795B795F111F8CFFAF4BB0F11F460FFD6
:101DE0001BC06F5F7F4F8F4F9F4F16C0882311F02E
:101DF00096E911C0772321F09EE8872F762F05C042
:101E0000662371F096E8862F70E060E02AF09A95DC
:101E1000660F771F881FDAF7880F9695879597F9D1
:101E20000895990F0008550FAA0BE0E8FEEF16166B
:101E30001706E807F907C0F012161306E407F507BE
:101E400098F0621B730B840B950B39F40A2661F032
:101E5000232B242B252B21F408950A2609F4A140D5
:101E6000A6958FEF811D811D08950E94480F0C9447
:101E7000B90F0E94AB0F38F00E94B20F20F09523EB
:101E800011F00C94A20F0C94A80F11240C94ED0FD8
:101E90000E94CA0F70F3959FC1F3950F50E0551F34
:101EA000629FF001729FBB27F00DB11D639FAA27AF
:101EB000F00DB11DAA1F649F6627B00DA11D661FFE
:101EC000829F2227B00DA11D621F739FB00DA11D1F
:101ED000621F839FA00D611D221F749F3327A00DD9
:101EE000611D231F849F600D211D822F762F6A2F75
:101EF00011249F5750409AF0F1F088234AF0EE0FDA
:101F0000FF1FBB1F661F771F881F91505040A9F706
:101F10009E3F510580F00C94A20F0C94ED0F5F3F93
:101F2000E4F3983ED4F3869577956795B795F79542
:101F3000E7959F5FC1F7FE2B880F911D96958795BA
:101F400097F9089597F99F6780E870E060E0089539
:101F50009FEF80EC089500240A94161617061806C1
:101F60000906089500240A9412161306140605069D
:101F70000895092E0394000C11F4882352F0BB0F2E
:101F800040F4BF2B11F460FF04C06F5F7F4F8F4F91
:101F90009F4F089557FD9058440F551F59F05F3FCC
:101FA00071F04795880F97FB991F61F09F3F79F07B
:101FB00087950895121613061406551FF2CF4695FD
:101FC000F1DF08C0161617061806991FF1CF86957F
:101FD0007105610508940895E894BB276627772763
:101FE000CB0197F90895052E97FB1EF400940E94EB
:101FF0000A1057FD07D00E94491007FC03D04EF489
:102000000C940A1050954095309521953F4F4F4FB5
:102010005F4F089590958095709561957F4F8F4F94
:102020009F4F08952F923F924F925F926F927F92AF
:102030008F929F92AF92BF92CF92DF92EF92FF92D8
:102040000F931F93CF93DF93CDB7DEB7CA1BDB0B84
:102050000FB6F894DEBF0FBECDBF09942A88398829
:1020600048885F846E847D848C849B84AA84B98430
:10207000C884DF80EE80FD800C811B81AA81B9813C
:10208000CE0FD11D0FB6F894DEBF0FBECDBFED0150
:102090000895A1E21A2EAA1BBB1BFD010DC0AA1FA9
:1020A000BB1FEE1FFF1FA217B307E407F50720F0C1
:1020B000A21BB30BE40BF50B661F771F881F991F3C
:1020C0001A9469F760957095809590959B01AC0185
:1020D000BD01CF010895A29FB001B39FC001A39F8E
:1020E000700D811D1124911DB29F700D811D112451
:1020F000911D08955058BB27AA270E9492100C9456
:10210000B90F0E94AB0F38F00E94B20F20F039F4E3
:102110009F3F19F426F40C94A80F0EF4E095E7FB0A
:102120000C94A20FE92F0E94CA0F58F3BA17620746
:1021300073078407950720F079F4A6F50C94EC0F4B
:102140000EF4E0950B2EBA2FA02D0B01B9019001D2
:102150000C01CA01A0011124FF27591B99F0593F16
:1021600050F4503E68F11A16F040A22F232F342F5E
:102170004427585FF3CF469537952795A795F040AC
:102180005395C9F77EF41F16BA0B620B730B840BC1
:10219000BAF09150A1F0FF0FBB1F661F771F881F79
:1021A000C2F70EC0BA0F621F731F841F48F48795D1
:1021B00077956795B795F7959E3F08F0B0CF9395C3
:1021C000880F08F09927EE0F9795879508950E943C
:1021D000FB100C94B90F0E94B20F58F00E94AB0F85
:1021E00040F029F45F3F29F00C94A20F51110C9498
:1021F000ED0F0C94A80F0E94CA0F68F39923B1F356
:10220000552391F3951B550BBB27AA27621773071C
:10221000840738F09F5F5F4F220F331F441FAA1FB0
:10222000A9F335D00E2E3AF0E0E832D0915050406C
:10223000E695001CCAF72BD0FE2F29D0660F771F1A
:10224000881FBB1F261737074807AB07B0E809F000
:10225000BB0B802DBF01FF2793585F4F3AF09E3F85
:10226000510578F00C94A20F0C94ED0F5F3FE4F34E
:10227000983ED4F3869577956795B795F7959F5FC8
:10228000C9F7880F911D9695879597F90895E1E014
:10229000660F771F881FBB1F621773078407BA0773
:1022A00020F0621B730B840BBA0BEE1F88F7E095CE
:1022B00008950E94110F08F48FEF089597FB072EE1
:1022C00016F4009407D077FD09D00E94791107FC1D
:1022D00005D03EF4909581959F4F08957095619536
:1022E0007F4F08950E946B10B7FF0895821B930BD8
:1022F0000895AA1BBB1B51E107C0AA1FBB1FA6174D
:10230000B70710F0A61BB70B881F991F5A95A9F79E
:1023100080959095BC01CD010895EE0FFF1F0590AB
:10232000F491E02D0994CF93DF938230910510F45E
:1023300082E090E0E0915702F091580220E030E016
:10234000C0E0D0E0309711F1408151814817590722
:10235000C0F04817590761F482819381209719F0E2
:102360009B838A832BC0909358028093570226C088
:102370002115310519F04217530718F49A01BE01CF
:10238000DF01EF010280F381E02DDCCF2115310563
:1023900009F1281B390B2430310590F412968D91E8
:1023A0009C9113976115710521F0FB019383828342
:1023B00004C09093580280935702FD01329644C0A6
:1023C000FD01E20FF31F81939193225031092D9368
:1023D0003C933AC02091550230915602232B41F490
:1023E000209102013091030130935602209355024F
:1023F00020910001309101012115310541F42DB7E3
:102400003EB74091040150910501241B350BE0912A
:102410005502F0915602E217F307A0F42E1B3F0B72
:102420002817390778F0AC014E5F5F4F2417350746
:1024300048F04E0F5F1F5093560240935502819310
:10244000919302C0E0E0F0E0CF01DF91CF910895D9
:102450000F931F93CF93DF93009709F48CC0FC0177
:10246000329713821282009157021091580201157F
:10247000110581F420813181820F931F2091550233
:10248000309156022817390779F5F0935602E093F8
:10249000550271C0D80140E050E0AE17BF0750F4BC
:1024A00012962D913C911397AD012115310509F13B
:1024B000D901F3CF9D01DA013383228360817181D9
:1024C000860F971F8217930769F4EC0128813981E1
:1024D000260F371F2E5F3F4F318320838A819B81D8
:1024E00093838283452B29F4F0935802E09357029B
:1024F00042C01396FC93EE931297ED0149915991C6
:102500009E01240F351FE217F30771F4808191813A
:10251000840F951F029611969C938E9382819381CE
:1025200013969C938E931297E0E0F0E0D8011296F8
:102530008D919C911397009719F0F8018C01F6CFBB
:102540008D919C9198012E5F3F4F820F931F209198
:102550005502309156022817390769F4309729F44B
:10256000109258021092570202C0138212821093E6
:10257000560200935502DF91CF911F910F9108955C
:10258000A0E0B0E0E6ECF2E10C941610EC0100974C
:1025900021F4CB010E949311B8C0FC01E60FF71F94
:1025A0009C0122503109E217F30708F4ACC0D901AD
:1025B0000D911C91119706171707B0F00530110502
:1025C00008F49FC0C80104978617970708F499C0BC
:1025D00002501109061B170B019311936D937C9305
:1025E000CF010E9428128DC05B01A01AB10A4C01D4
:1025F000800E911EA0915702B091580240E050E029
:10260000E12CF12C109709F44AC0A815B905D1F5B1
:102610006D907C901197630182E0C80ED11CCA14A2
:10262000DB0480F1A3014A195B096A0182E0C80E4C
:10263000D11C1296BC9012971396AC91B5E0CB16B4
:10264000D10440F0B282A38351834083D9016D93BA
:102650007C930AC00E5F1F4FC301800F911FF901C9
:1026600091838083EB2DFA2FE114F10431F0D7012F
:102670001396FC93EE93129744C0F0935802E093A4
:1026800057023FC08D919C9111974817590708F444
:10269000AC017D0112960D90BC91A02DB3CF80911D
:1026A00055029091560288159905E1F4461757078F
:1026B000C8F48091000190910101009741F48DB719
:1026C0009EB74091040150910501841B950BE817BA
:1026D000F907C8F4F0935602E0935502F9017183AB
:1026E00060830FC0CB010E9493117C01009759F0C9
:1026F000A801BE010E948F13CE010E942812C701BB
:1027000004C0CE0102C080E090E0CDB7DEB7EEE0BD
:102710000C94321081E090E0F8940C94A813FB0123
:10272000DC0102C001900D9241505040D8F708954D
:10273000FB01DC018D91019080190110D9F3990BF7
:102740000895FB01DC0101900D920020E1F708954E
:1027500010E0CFEDD0E004C0FE010E948D11219663
:0A276000C03ED107C9F7F894FFCF7F
:10276A00000059028000000000006A030000000017
:10277A006503600300000000220A130ACC03FEFF6F
:10278A0000002F0A1F0A000000003203320332033E
:10279A00000000002603780400000000F10236055C
:1027AA0000000000A1010A013901E8016A0148019B
:1027BA005C010000000048020A023030003031009B
:0C27CA00303200443A000D0A00413A0091
:00000001FF
