:100000000C9463000C948B000C948B000C94E80609
:100010000C94E8060C94E8060C948B000C948B006E
:100020000C948B000C948B000C948B000C94900817
:100030000C948B000C948B000C948B000C948B0014
:100040000C94160A0C948B000C94B6060C94900633
:100050000C948B000C948B000C948B000C948B00F4
:100060000C9462070C948B00000000002400270011
:100070002A000000000023002600290000000000E4
:10008000250028002B0004040404040404040202D4
:100090000202020203030303030301020408102007
:1000A0004080010204081020010204081020000012
:1000B0000008000201000003040700000000000027
:1000C00000000F0D600A11241FBECFEFD8E0DEBF85
:1000D000CDBF23E0A8E8B1E001C01D92AA35B20768
:1000E000E1F711E0A0E0B1E0EEEBF0E202C0059034
:1000F0000D92A838B107D9F710E0C2E6D0E004C0ED
:100100002197FE010E94320EC136D107C9F70E9425
:10011000640A0C9452100C940000CF92DF92EF927C
:10012000FF920F931F93CF93DF936C017A018B01A2
:10013000C0E0D0E0CE15DF0589F0D8016D918D01CA
:10014000D601ED91FC910190F081E02DC601099559
:10015000892B11F47E0102C02196ECCFC701DF91FB
:10016000CF911F910F91FF90EF90DF90CF90089566
:10017000FC01538D448D252F30E0842F90E0821BAD
:10018000930B541710F0CF96089501970895FC0132
:10019000918D828D981761F0828DDF01A80FB11DBE
:1001A0005D968C91928D9F5F9F73928F90E00895E2
:1001B0008FEF9FEF0895FC01918D828D981731F09C
:1001C000828DE80FF11D858D90E008958FEF9FEFF0
:1001D0000895FC01918D228D892F90E0805C9F4FC6
:1001E000821B91098F739927089582E892E00E94FB
:1001F000E90021E0892B09F420E0822F0895FC0119
:10020000848DDF01A80FB11DA35ABF4F2C91848D9F
:1002100090E001968F739927848FA689B7892C93D4
:10022000A089B1898C9180648C93938D848D98136F
:1002300006C00288F389E02D80818F7D8083089538
:10024000EF92FF920F931F93CF93DF93EC0181E026
:10025000888F9B8D8C8D981305C0E889F9898081E2
:1002600085FD24C0F62E0B8D10E00F5F1F4F0F731E
:100270001127E02E8C8DE8120CC00FB607FCFACFC8
:10028000E889F989808185FFF5CFCE010E94FF00C2
:10029000F1CF8B8DFE01E80FF11DE35AFF4FF08285
:1002A0000B8FEA89FB898081806207C0EE89FF8914
:1002B0006083E889F98980818064808381E090E0AF
:1002C000DF91CF911F910F91FF90EF900895CF9301
:1002D000DF93EC01888D8823C9F0EA89FB8980814E
:1002E00085FD05C0A889B9898C9186FD0FC00FB620
:1002F00007FCF5CF808185FFF2CFA889B9898C9161
:1003000085FFEDCFCE010E94FF00E7CFDF91CF91B7
:10031000089520917E0230917F022817390771F4E9
:1003200090917C0280917D02981741F0E0917C02CF
:10033000F0E0EB5CFD4F808190E008958FEF9FEF40
:10034000089508951F93CF93DF93DC015C962D9160
:100350003C915D972115310539F481E090E01396C9
:100360009C938E9312973DC05196ED91FC915297BC
:1003700050969C915097892F80951FB75E964C910F
:100380005E9741FB772770F941FD6095F8944081B5
:10039000772311F0492B01C048234083E9012197BD
:1003A000F1F748E0508160FF02C0592B01C058238B
:1003B0005083E9012197F1F76695415099F777232A
:1003C00021F090818923808303C08081982B9083C2
:1003D0001FBF5C968D919C915D970197F1F721E08D
:1003E00030E0C901DF91CF911F91089520917E02E5
:1003F00030917F022817390771F480917D02209196
:100400007C0290E0805C9F4F821B910960E470E069
:100410000E940A0E089580E090E0089520917E02E7
:1004200030917F0228173907B9F490917C028091AE
:100430007D02981789F0E0917C02F0E0EB5CFD4FC3
:10044000808120917C0230E02F5F3F4F2F73332754
:1004500020937C0290E008958FEF9FEF0895089518
:10046000E0917B0280917A02E81730F4F0E0EB5ED5
:10047000FD4F808190E008958FEF9FEF0895909158
:100480007B0280917A02981750F4E92FF0E0EB5E3E
:10049000FD4F208130E09F5F90937B0202C02FEFE1
:1004A0003FEFC901089580917A0290E020917B028C
:1004B000821B91090895089580E090E0089585EDEC
:1004C0008093BC008091BC0084FDFCCF1092770229
:1004D00008954091AB01262F30E0240F311D2132C9
:1004E0003105DCF4209177022430C9F4FC0180E06E
:1004F00090E0861758F43091AB012191DC01A757A9
:10050000BE4FA30FB11D2C930196F3CF8091AB0189
:10051000680F6093AB0180E0089581E0089582E068
:100520000895CF92DF92EF92FF920F931F93CF9394
:10053000DF937C01262F972F8A0180911402882354
:1005400091F0C62FD72F6E01C40ED51ECC15DD0538
:1005500071F06991D701ED91FC910190F081E02D4E
:10056000C7010995F3CF642F822F0E946902C80149
:10057000DF91CF911F910F91FF90EF90DF90CF907F
:100580000895CF93DF931F92CDB7DEB76983209193
:1005900014022223D1F020917802203240F021E091
:1005A00030E0FC013383228380E090E015C080912D
:1005B0007902E82FF0E0EC50FE4F998190838F5F35
:1005C000809379028093780205C061E0CE010196A4
:1005D0000E94690281E090E00F90DF91CF91089531
:1005E000FC01738362831582148289E89EEF9787EA
:1005F00086878FEF9FEF918B808B0895EF92FF920C
:100600000F931F93CF93DF937C0180913103882355
:10061000E1F310923103E70100E010E0F70184817B
:100620009581081719070CF5EE81FF81848195816A
:10063000D70112962D913C911397280F391F3583BE
:100640002483428153818E819F81241735074CF08A
:1006500015821482DC01ED91FC910280F381E02D82
:1006600009950F5F1F4F2296D9CFDF91CF911F9130
:100670000F91FF90EF900895FC012481358129307E
:1006800031057CF4F9013396EE0FFF1FE80FF91FD7
:10069000718360832F5F3F4FFC013583248381E0AA
:1006A000089580E00895FC017383628315821482AB
:1006B0000895FC01738362831582148208950F9359
:1006C0001F93CF93DF93CDB7DEB762970FB6F89441
:1006D000DEBF0FBECDBF8C01CB01F80111821082AD
:1006E000138212821582148250E0BE016F5F7F4F29
:1006F0000E94560DBE016F5F7F4FC8010E94240902
:1007000062960FB6F894DEBF0FBECDBFDF91CF91DA
:100710001F910F91089504960C943B090F931F931A
:10072000CF938C01FC01C08181E080931402C093BF
:100730008801109279021092780260E08FE193E0D4
:100740000E94C10290917802913208F046C08091D7
:1007500077028111FCCF82E08093770281E0809361
:1007600076028FEF8093D0011092F2019093F10105
:10077000A4EFB1E021ED31E0F9018E2F821B891742
:1007800018F48D918193F9CF1092F3019091F301B8
:10079000CC0FC92BC093F30180917502813061F4B5
:1007A000109275028091F3018093BB008091BC0090
:1007B00083FDF8CF85EC01C085EE8093BC0080916D
:1007C00077028230E1F38091D0018F3F31F0809148
:1007D000D001803211F08091D001109279021092F4
:1007E000780210921402F8018081909177029111A1
:1007F000FCCF91E090937702909376022FEF2093B5
:10080000D0011092F2011092F1019093F3019091B6
:10081000F301880F892B8093F30180917502813059
:1008200061F4109275028091F3018093BB00809176
:10083000BC0083FDF8CF85EC01C085EE8093BC0041
:10084000809177028130E1F38091F201811103C040
:100850008091F20101C081E0A1EDB1E025E132E03B
:10086000F9019E2F921B981718F49D919193F9CF3F
:1008700010927B0280937A02811101C0FFCF8FE139
:1008800093E0CF911F910F910C943F020F931F9310
:10089000CF93DF93EC0188819981009729F02A8119
:1008A0003B812617370788F48B016F5F7F4F0E94CB
:1008B000650F009761F0998388831B830A832C81DD
:1008C0003D81232B11F4FC01108281E001C080E006
:1008D000DF91CF911F910F910895CF93DF93EC019A
:1008E00088819981009711F00E94CD0E198218829B
:1008F0001D821C821B821A82DF91CF910895FC0118
:10090000808191810C94CD0EFC01118210821382A2
:100910001282158214820C943B09FC011182108210
:1009200013821282158214826115710551F0FB0148
:1009300001900020E9F73197AF01461B570B0C944B
:1009400003090895EF92FF920F931F93CF93DF93C4
:10095000CDB7DEB72C970FB6F894DEBF0FBECDBF74
:100960008C01DC0118968D919C9119970E948E0341
:100970007C01F80126853785281B390B37FF03C01A
:100980003195219531092630310544F0D8011F9663
:10099000FC92EE921E974AE0B70122C064EF71E02C
:1009A00080E090E00E94DC09F80126853785E20EA0
:1009B000F31E808591850E948E038E0D9F1D63E03E
:1009C00070E00E940A0ED8011E968D919C911F978F
:1009D0008617970791F11F967C936E931E974AE0B6
:1009E000CE0107960E945F0362E771E0CE01019697
:1009F0000E948D04BE01695F7F4FCE0101960E9467
:100A0000A1080E947709CE0101960E947F04CE01C1
:100A100007960E947F04F801E680F7806685778557
:100A2000072E000C880B990B0E94980DD7011C967D
:100A30006D937D938D939C931F97D8011696ED919E
:100A4000FC9117976285738550968D919C91519773
:100A50008617970701F151967C936E9350974AE061
:100A6000CE0107960E945F0366E771E0CE01019612
:100A70000E948D04BE01695F7F4FCE0101960E94E6
:100A8000A1080E947709CE0101960E947F04CE0141
:100A900007960E947F042C960FB6F894DEBF0FBE17
:100AA000CDBFDF91CF911F910F91FF90EF900895EF
:100AB0000F931F93CF93DF9300D000D000D0CDB71A
:100AC000DEB762E370E080E090E00E94DC0982E83B
:100AD00092E00E94E900892B51F082E892E00E94A6
:100AE000C700682F8BE293E00E94D308F0CF6BE23F
:100AF00073E0CE0101960E94840486E090E00E949B
:100B0000380E8C0167E871E00E948D04BE016F5FB2
:100B10007F4FC8010E943B0910938102009380021D
:100B2000CE0101960E947F0426960FB6F894DEBF90
:100B30000FBECDBFDF91CF911F910F9108950E94FD
:100B4000F50081110C9458050895AF92BF92CF9291
:100B5000DF92EF92FF920F931F93CF93DF93CDB766
:100B6000DEB72C970FB6F894DEBF0FBECDBF6C0179
:100B7000DC011896ED91FC91199786819781DC0133
:100B8000ED91FC910084F185E02D0995892B09F404
:100B9000B6C0F60100851185D80116968D919C91FD
:100BA0001797DC01ED91FC910084F185E02D09950A
:100BB000892B09F44DC067E871E0C8010E9424093F
:100BC000F80186819781DC01ED91FC910284F38527
:100BD000E02D09955C01E12CF12CEA14FB04F4F4FE
:100BE000F80186819781DC01ED91FC910084F1850B
:100BF000E02D0995892B89F3F80186819781DC0125
:100C0000ED91FC910284F385E02D0995682FC801D0
:100C10000E94D308BFEFEB1AFB0ADFCFB801CE0169
:100C200001960E94840486E090E00E94380E7C01C8
:100C300067E871E00E948D04BE016F5F7F4FC701BE
:100C40000E943B09CE0101960E947F04870102C0E9
:100C500000E010E0B801CE0107960E9484046AE724
:100C600071E0CE0101960E948D044D815E818B85DD
:100C70009C858417950778F08F819885009759F0A7
:100C800069817A816115710531F00E944410FF2459
:100C9000F394892B09F0F12CCE0101960E947F0478
:100CA000FF2001F1D6011A96ED91FC911B9781E08E
:100CB00090E093838283BE01695F7F4FCE010196EE
:100CC0000E948404BE016F5F7F4FF6018285938589
:100CD0000E948B03CE0101960E947F04CE010796ED
:100CE0000E9477090115110531F0C8010E947F04A7
:100CF000C8010E94CD0ECE0107960E947F042C965B
:100D00000FB6F894DEBF0FBECDBFDF91CF911F911C
:100D10000F91FF90EF90DF90CF90BF90AF9008952C
:100D20001F920F920FB60F9211242F933F934F9360
:100D30005F936F937F938F939F93AF93BF93EF9343
:100D4000FF9382E892E00E94FF00FF91EF91BF9134
:100D5000AF919F918F917F916F915F914F913F9153
:100D60002F910F900FBE0F901F9018951F920F920A
:100D70000FB60F9211242F938F939F93EF93FF93AE
:100D8000E0919202F09193028081E0919802F091BB
:100D9000990282FD12C0908180919B028F5F8F73B8
:100DA00020919C02821751F0E0919B02F0E0EE57F7
:100DB000FD4F958F80939B0201C08081FF91EF9141
:100DC0009F918F912F910F900FBE0F901F901895AC
:100DD0001F920F920FB60F9211242F933F934F93B0
:100DE0005F936F937F938F939F93AF93BF93EF9393
:100DF000FF93E0917E02F0917F02309709F451C099
:100E0000968DA685B785858591FF04C09C91892321
:100E100029F447C09C91892309F043C0A389B48970
:100E20009C918589809589238C93868997890197E0
:100E3000F1F7608D718DA685B785558538E020E086
:100E4000CB010197F1F7822F90E095958795282F98
:100E50004C91452309F02068315091F7868D81FD32
:100E6000209580917D0290E001968F7399273091B3
:100E70007C02381749F0A0917D02B0E0AB5CBD4F19
:100E80002C9380937D0203C0868D8160868F828D36
:100E9000938D0197F1F7A389B4899C918589892B5A
:100EA0008C93FF91EF91BF91AF919F918F917F9123
:100EB0006F915F914F913F912F910F900FBE0F90C7
:100EC0001F9018951F920F920FB60F9211242F9317
:100ED0003F934F935F936F937F938F939F93AF93C2
:100EE000BF93EF93FF938091B900887F803609F418
:100EF0009CC068F5883209F45BC090F4803109F435
:100F000054C038F4882309F4F6C0883009F44DC081
:100F1000F6C0883109F44CC0803209F45DC0EFC0DE
:100F2000803409F468C048F4803309F455C088332C
:100F300009F0E5C08093D001D8C0803509F44FC0D6
:100F4000883509F45DC0883409F0D9C0D6C0883925
:100F500009F4C7C0A8F4883709F467C038F48836A4
:100F600009F463C0803709F460C0C9C0883809F447
:100F7000B8C0803909F45FC0803809F0C0C05BC0D8
:100F8000803B09F486C038F4803A09F466C0883A98
:100F900009F47FC0B4C0803C09F4A7C0883C09F4C0
:100FA000A4C0883B09F48AC0AAC08091F30110C094
:100FB0009091F2018091F101981770F5E091F201A2
:100FC00081E08E0F8093F201F0E0EF52FE4F8081BE
:100FD0008093BB0085EC86C08093D0018EC0E091E9
:100FE000F20181E08E0F8093F2018091BB00F0E06E
:100FF000EF52FE4F80839091F2018091F1016EC01B
:10100000E091F20181E08E0F8093F2018091BB00AC
:10101000F0E0EF52FE4F80838091760281116DC027
:1010200081E08093750284EA61C083E08093770257
:101030001092CF01CFCF8091CF01803208F051C004
:10104000E091CF0181E08E0F8093CF018091BB00B2
:10105000F0E0E155FE4F8083BDCF85EC8093BC006E
:10106000109277028091CF01803230F4E091CF016D
:10107000F0E0E155FE4F10826091CF0170E0E09109
:10108000AD01F091AE018FEA91E009951092CF0188
:1010900036C084E0809377021092AC011092AB01CD
:1010A000E091A901F091AA0109958091AB0181110C
:1010B00005C081E08093AB0110928901E091AC0101
:1010C00081E08E0F8093AC01F0E0E757FE4F808106
:1010D0008093BB009091AC018091AB01981708F40C
:1010E00079CF85E88093BC000AC085EC8093BC0072
:1010F0001092770204C01092D0010E945F02FF910B
:10110000EF91BF91AF919F918F917F916F915F917F
:101110004F913F912F910F900FBE0F901F901895F8
:101120001F920F920FB60F9211248F9381E080933C
:1011300031038F910F900FBE0F901F9018950E9452
:101140002F10EF92FF920F931F93CF93DF93EC0139
:10115000FB0184819581E080F1800C811D81E11487
:10116000F104B1F00097B9F0080F191FB801CE01D2
:101170000E944604882361F0288139818C819D81F9
:10118000B701820F931F0E943D101D830C8303C083
:10119000CE010E946D04CE01DF91CF911F910F917E
:1011A000FF90EF900895EF92FF920F931F93CF93CC
:1011B000DF9300D0CDB7DEB78C0169831A82FC01C2
:1011C000E480F580FFEFEF1AFF0AB7010E944604A2
:1011D000882381F0F8012081318184819581BE01CD
:1011E0006F5F7F4F820F931F0E943D10F801F582C1
:1011F000E48281E00F900F90DF91CF911F910F91CA
:10120000FF90EF900895EF92FF920F931F93CF936B
:10121000DF93EC017B018A01BA010E94460481112F
:1012200004C0CE010E946D0407C01D830C83B7016A
:10123000888199810E943D10CE01DF91CF911F914D
:101240000F91FF90EF900895CF93DF93EC0161151C
:10125000710559F0FB0101900020E9F73197AF01CA
:10126000461B570B0E94030902C00E946D04CE0169
:10127000DF91CF910895CF93DF93EC01FB018617A7
:10128000970761F0608171816115710529F04481D2
:1012900055810E94030902C00E946D04CE01DF91B6
:1012A000CF9108953FB7F8948091520390915303E2
:1012B000A0915403B091550326B5A89B05C02F3FBC
:1012C00019F00196A11DB11D3FBFBA2FA92F982F6C
:1012D0008827820F911DA11DB11DBC01CD0142E0E7
:1012E000660F771F881F991F4A95D1F70895CF93EE
:1012F000DF93FC01448155816081718182E892E035
:101300000E948D00EC0142E050E065E871E082E867
:1013100092E00E948D008C0F9D1FDF91CF91089568
:1013200090E0FC01E255FF4F3491FC01E656FF4F7F
:101330002491FC01EA57FF4FE491EE2309F43BC0EE
:10134000332339F1333091F038F43130A9F03230B1
:1013500001F584B58F7D12C0373091F03830A1F09F
:101360003430B9F4809180008F7D03C0809180007B
:101370008F77809380000DC084B58F7784BD09C0BE
:101380008091B0008F7703C08091B0008F7D8093F3
:10139000B000F0E0EE0FFF1FE458FF4FA591B491AD
:1013A0008FB7F894EC91611103C020952E2301C0F2
:1013B0002E2B2C938FBF08958F929F92AF92BF9246
:1013C000CF92DF92EF92FF926B017C010E94520953
:1013D0004B015C01C114D104E104F104F1F00E945D
:1013E0005209DC01CB0188199909AA09BB09883E79
:1013F0009340A105B10570F321E0C21AD108E108BC
:10140000F10888EE880E83E0981EA11CB11CC1145F
:10141000D104E104F10419F7DDCFFF90EF90DF90E4
:10142000CF90BF90AF909F908F9008951F920F9292
:101430000FB60F9211242F933F938F939F93AF93E7
:10144000BF9380914E0390914F03A0915003B091B0
:10145000510330914D0323E0230F2D3720F40196E3
:10146000A11DB11D05C026E8230F0296A11DB11DC7
:1014700020934D0380934E0390934F03A09350030A
:10148000B09351038091520390915303A091540360
:10149000B09155030196A11DB11D80935203909305
:1014A0005303A0935403B0935503BF91AF919F9101
:1014B0008F913F912F910F900FBE0F901F90189515
:1014C0008BE293E00C947F04CF93DF9300D000D0A5
:1014D00000D0CDB7DEB7789484B5826084BD84B582
:1014E000816084BD85B5826085BD85B5816085BD1F
:1014F00080916E00816080936E00109281008091D7
:10150000810082608093810080918100816080935E
:101510008100809180008160809380008091B10083
:1015200084608093B1008091B00081608093B000AE
:1015300080917A00846080937A0080917A00826042
:1015400080937A0080917A00816080937A00809104
:101550007A00806880937A001092C10080E190E068
:101560000E94380E8C016C0184E0C80ED11C67E823
:1015700071E0C6010E948D04D80111961C921E9242
:1015800013961C921E92129767E871E0C6010E94A2
:101590002409F80113861286148615861686178686
:1015A00089E190E09093350380933403F89410928E
:1015B000800010928100109285001092840089E9C9
:1015C00091E09093890080938800809181008860E9
:1015D000809381008091810085608093810080915B
:1015E0006F00826080936F0078941092370310929E
:1015F000360382E090E00E94380E4C0188E490E0CF
:10160000F4019183808310927B0210927A021092EF
:101610007902109278021092770277247394709274
:1016200076021092750261E082E10E94900961E009
:1016300083E10E9490098091B9008E7F8093B90068
:101640008091B9008D7F8093B90088E48093B800C1
:1016500085E48093BC0088E090E00E94380E7C0115
:1016600067E871E00E948D048FE190E00E94380EDF
:101670005C01DC0113961C921E92129788EE93E097
:10168000A0E0B0E0F50184839583A683B7838AE068
:1016900091E091838083178A168A118E108E138EA3
:1016A000128E158E148E868D8E7F8D7F868F8695F9
:1016B0008170682F672583E00E949009EDE9F0E0D2
:1016C0002491E9E8F0E08491882399F090E0880F74
:1016D000991FFC01E859FF4FA591B491FC01E45812
:1016E000FF4F859194918FB7F894EC912E2B2C930A
:1016F0008FBFEDE9F0E0E491D5015096EC93E9E875
:10170000F0E0E491F0E0EE0FFF1FE458FF4F859109
:101710009491F501928B818BECE9F0E02491E8E85B
:10172000F0E084918823D1F090E0880F991FFC01AC
:10173000E859FF4FA591B491FC01E458FF4F859102
:1017400094914FB7F8943C91E22FE095232F2E23EC
:101750002C93DC012C91E223EC934FBFF501868D95
:1017600081FD04C061E082E00E94900982E0D50121
:101770001C968C931C97ECE9F0E0E4911D96EC9399
:10178000E8E8F0E0E491F0E0EE0FFF1FEE58FF4FC5
:1017900085919491F50197878687D7011796BC921A
:1017A000AE92169781E090E00E94380E5C0160E0F6
:1017B00071E0C7010E944604D7011696ED91FC9195
:1017C0001797138E128E118E108E178A168A8DE936
:1017D00091E0958F848F8485863108F04DC02DEB84
:1017E00030E0378B268B2BE931E0318F208F2CE2D4
:1017F00031E0338F228F90916800883050F021E0E3
:101800008E3008F420E081E001C0880F2A95EAF7C5
:1018100001C084E0892B809368009485983038F06B
:101820009E3040F0963148F020E030E008C02DE6D0
:1018300030E005C02BE630E002C02CE630E0348B0F
:10184000238B983030F481E001C0880F9A95EAF735
:101850000EC0292F30E09E3018F42850310902C004
:101860002E50310981E001C0880F2A95EAF7858B57
:10187000848D958D0197F1F7828D938D892B49F198
:1018800040917E0250917F024E175F0711F1411582
:10189000510571F0DA0153962D913C915497D9017D
:1018A0009C91DA0155968C9180958923D9018C936E
:1018B000868D8E7F868F10927D0210927C02F0932F
:1018C0007F02E0937E02A389B4899C918589892B4C
:1018D0008C93E0919202F091930282E08083E091F8
:1018E0008E02F0918F021082E0919002F0919102AD
:1018F0008FEC808310929A02E0919602F091970209
:1019000086E08083E0919402F0919502808180616D
:101910008083E0919402F0919502808188608083B9
:10192000E0919402F0919502808180688083E0913B
:101930009402F091950280818F7D808360E071E058
:101940008BE293E00E94460467E871E08BE293E04B
:101950000E94240910928102109280028CE090E093
:101960000E94380E3C018CE191E0F3019183808369
:1019700013870287F186E086B782A68269E170E06C
:10198000C3010E945303B30182E393E00E943C032E
:10199000B601CE0101960E948404CE0101960E94F8
:1019A0007709CE0101960E947F0482E190E00E94B7
:1019B000380E6C0184E291E0D60111969C938E93CF
:1019C00017961C930E93169719969C928E921897C1
:1019D0001B96BC92AE921A971D96FC92EE921C97A3
:1019E00068EE73E0C6010E94F002B60182E393E064
:1019F0000E943C036EE771E0CE0101960E948D04C7
:101A0000CE0101960E947709CE0101960E947F04C3
:101A100082E393E00E94FE020E949F05F9CFE2E874
:101A2000F2E01382128288EE93E0A0E0B0E08483BB
:101A30009583A683B7832CE231E03183208325ECA4
:101A400030E03587248724EC30E03787268720EC88
:101A500030E0318B208B21EC30E0338B228B22EC79
:101A600030E0358B248B26EC30E0378B268B118EC3
:101A7000128E138E148EEFE1F3E0138212828483B0
:101A80009583A683B7838EE391E09183808367E893
:101A900071E08BE293E00E948D048EE691E09093DA
:101AA0003303809332031092310308954532510578
:101AB00020F4423010F00C94610DFB011082CB0138
:101AC0000895BB274A3031F4992322F4BDE2909562
:101AD00081959F4F0C946D0DBB27FB015527AA27BD
:101AE000880F991FAA1FA41710F0A41B83955051AB
:101AF000B9F7A05DAA3308F0A95DA193009779F723
:101B0000B111B1931192CB010C94860DDC01FC0153
:101B1000672F71917723E1F7329704C07C916D9321
:101B200070836291AE17BF07C8F30895E89409C0A7
:101B300097FB3EF490958095709561957F4F8F4F00
:101B40009F4F9923A9F0F92F96E9BB279395F69516
:101B5000879577956795B795F111F8CFFAF4BB0F94
:101B600011F460FF1BC06F5F7F4F8F4F9F4F16C0F8
:101B7000882311F096E911C0772321F09EE8872F82
:101B8000762F05C0662371F096E8862F70E060E03E
:101B90002AF09A95660F771F881FDAF7880F9695B7
:101BA000879597F908952F923F924F925F926F9287
:101BB0007F928F929F92AF92BF92CF92DF92EF92DD
:101BC000FF920F931F93CF93DF93CDB7DEB7CA1B5E
:101BD000DB0B0FB6F894DEBF0FBECDBF09942A8889
:101BE000398848885F846E847D848C849B84AA8431
:101BF000B984C884DF80EE80FD800C811B81AA81BE
:101C0000B981CE0FD11D0FB6F894DEBF0FBECDBF88
:101C1000ED01089597FB072E16F4009407D077FD89
:101C200009D00E941E0E07FC05D03EF490958195C8
:101C30009F4F0895709561957F4F0895AA1BBB1B18
:101C400051E107C0AA1FBB1FA617B70710F0A61BBC
:101C5000B70B881F991F5A95A9F780959095BC01DD
:101C6000CD010895EE0FFF1F0590F491E02D09942A
:101C7000CF93DF938230910510F482E090E0E09101
:101C80005803F091590320E030E0C0E0D0E03097F5
:101C900011F14081518148175907C0F04817590781
:101CA00061F482819381209719F09B838A832BC0F2
:101CB000909359038093580326C02115310519F0DC
:101CC0004217530718F49A01BE01DF01EF010280A9
:101CD000F381E02DDCCF2115310509F1281B390BEB
:101CE0002430310590F412968D919C9113976115D3
:101CF000710521F0FB019383828304C09093590303
:101D000080935803FD01329644C0FD01E20FF31F9A
:101D100081939193225031092D933C933AC02091A5
:101D2000560330915703232B41F420910201309147
:101D30000301309357032093560320910001309103
:101D400001012115310541F42DB73EB74091040141
:101D500050910501241B350BE0915603F091570378
:101D6000E217F307A0F42E1B3F0B2817390778F072
:101D7000AC014E5F5F4F2417350748F04E0F5F1FD1
:101D800050935703409356038193919302C0E0E030
:101D9000F0E0CF01DF91CF9108950F931F93CF9380
:101DA000DF93009709F48CC0FC01329713821282F2
:101DB00000915803109159030115110581F42081F8
:101DC0003181820F931F20915603309157032817BA
:101DD000390779F5F0935703E093560371C0D801A2
:101DE00040E050E0AE17BF0750F412962D913C91A1
:101DF0001397AD012115310509F1D901F3CF9D01EB
:101E0000DA013383228360817181860F971F8217E5
:101E1000930769F4EC0128813981260F371F2E5F63
:101E20003F4F318320838A819B8193838283452B1B
:101E300029F4F0935903E093580342C01396FC939E
:101E4000EE931297ED01499159919E01240F351F90
:101E5000E217F30771F480819181840F951F029638
:101E600011969C938E938281938113969C938E936B
:101E70001297E0E0F0E0D80112968D919C911397B3
:101E8000009719F0F8018C01F6CF8D919C91980183
:101E90002E5F3F4F820F931F2091560330915703BF
:101EA0002817390769F4309729F4109259031092D2
:101EB000580302C0138212821093570300935603F3
:101EC000DF91CF911F910F910895A0E0B0E0EBE674
:101ED000FFE00C94D70DEC01009721F4CB010E9498
:101EE000380EB8C0FC01E60FF71F9C0122503109E3
:101EF000E217F30708F4ACC0D9010D911C911197BA
:101F000006171707B0F00530110508F49FC0C80187
:101F100004978617970708F499C002501109061B09
:101F2000170B019311936D937C93CF010E94CD0EFB
:101F30008DC05B01A01AB10A4C01800E911EA091C8
:101F40005803B091590340E050E0E12CF12C109778
:101F500009F44AC0A815B905D1F56D907C90119788
:101F6000630182E0C80ED11CCA14DB0480F1A30116
:101F70004A195B096A0182E0C80ED11C1296BC9016
:101F800012971396AC91B5E0CB16D10440F0B28213
:101F9000A38351834083D9016D937C930AC00E5F64
:101FA0001F4FC301800F911FF90191838083EB2D97
:101FB000FA2FE114F10431F0D7011396FC93EE935C
:101FC000129744C0F0935903E09358033FC08D919A
:101FD0009C9111974817590708F4AC017D0112969E
:101FE0000D90BC91A02DB3CF8091560390915703D3
:101FF00088159905E1F446175707C8F48091000148
:1020000090910101009741F48DB79EB74091040172
:1020100050910501841B950BE817F907C8F4F0935C
:102020005703E0935603F901718360830FC0CB011E
:102030000E94380E7C01009759F0A801BE010E9451
:102040003410CE010E94CD0EC70104C0CE0102C0E3
:1020500080E090E0CDB7DEB7EEE00C94F30D81E0C8
:1020600090E0F8940C945210FB01DC0102C0019046
:102070000D9241505040D8F70895FB01DC010190CA
:102080000D920020E1F70895FB01DC014150504022
:1020900030F08D910190801919F40020B9F7881B58
:1020A000990B089510E0C2E6D0E004C0FE010E9442
:0E20B000320E2196C336D107C9F7F894FFCF40
:1020BE0000005A03800000000000A2018D005C02A7
:1020CE00A101F6010E028901000000005303A505CF
:1020DE0000000000F002A2040000000020018D00AC
:1020EE00B8006701E900C700DB0000000000C10274
:1020FE0091025C022F0253023F02300200000000E8
:10210E009F088D005C025B029F089F089F080000DD
:10211E0000009F088D005C025B02000000003C0383
:10212E00FE0255543A0055493A004C523A00544575
:08213E0053543031000D0A007A
:00000001FF
