:100000000C9463000C948B000C948B000C941905D9
:100010000C9419050C9419050C948B000C948B000E
:100020000C948B000C948B000C948B000C94C106E8
:100030000C948B000C948B000C948B000C948B0014
:100040000C9484090C948B000C94C8080C94A2089E
:100050000C948B000C948B000C948B000C948B00F4
:100060000C9493050C948B000000000024002700E2
:100070002A000000000023002600290000000000E4
:10008000250028002B0004040404040404040202D4
:100090000202020203030303030301020408102007
:1000A0004080010204081020010204081020000012
:1000B0000008000201000003040700000000000027
:1000C00000005E0CCE0911241FBECFEFD8E0DEBFCA
:1000D000CDBF23E0A2E8B1E001C01D92A435B20774
:1000E000E1F711E0A0E0B1E0EEE5FFE102C005902C
:1000F0000D92A238B107D9F710E0C2E6D0E004C0F3
:100100002197FE010E94810DC136D107C9F70E94D7
:10011000D2090C94A20F0C94000020917802309127
:1001200079022817390771F490917602809177024D
:10013000981741F0E0917602F0E0E15DFD4F80819B
:1001400090E008958FEF9FEF089508951F93CF9348
:10015000DF93DC015C962D913C915D972115310573
:1001600039F481E090E013969C938E9312973DC0F2
:100170005196ED91FC91529750969C915097892FF2
:1001800080951FB75E964C915E9741FB772770F97B
:1001900041FD6095F8944081772311F0492B01C00F
:1001A00048234083E9012197F1F748E0508160FF3F
:1001B00002C0592B01C058235083E9012197F1F760
:1001C0006695415099F7772321F0908189238083A8
:1001D00003C08081982B90831FBF5C968D919C916A
:1001E0005D970197F1F721E030E0C901DF91CF91F0
:1001F0001F910895209178023091790228173907CC
:1002000071F4809177022091760290E0805C9F4F9C
:10021000821B910960E470E00E94590D089580E00E
:1002200090E00895209178023091790228173907DB
:10023000B9F49091760280917702981789F0E09155
:100240007602F0E0E15DFD4F80812091760230E0A2
:100250002F5F3F4F2F7333272093760290E008954E
:100260008FEF9FEF08950895E091750280917402D9
:10027000E81730F4F0E0E15FFD4F808190E00895F1
:100280008FEF9FEF089590917502809174029817F7
:1002900050F4E92FF0E0E15FFD4F208130E09F5FF7
:1002A0009093750202C02FEF3FEFC901089580912E
:1002B000740290E020917502821B910908950895BF
:1002C00080E090E0089585ED8093BC008091BC00B3
:1002D00084FDFCCF1092710208954091A501262F54
:1002E00030E0240F311D21323105DCF42091710200
:1002F0002430C9F4FC0180E090E0861758F4309176
:10030000A5012191DC01AD57BE4FA30FB11D2C9368
:100310000196F3CF8091A501680F6093A50180E05D
:10032000089581E0089582E00895CF92DF92EF92E0
:10033000FF920F931F93CF93DF937C01262F972F6C
:100340008A0180910E02882391F0C62FD72F6E016B
:10035000C40ED51ECC15DD0571F06991D701ED9164
:10036000FC910190F081E02DC7010995F3CF642F36
:10037000822F0E946D01C801DF91CF911F910F91D3
:10038000FF90EF90DF90CF900895CF93DF931F926F
:10039000CDB7DEB7698320910E022223D1F02091E0
:1003A0007202203240F021E030E0FC0133832283EE
:1003B00080E090E015C080917302E82FF0E0E251F8
:1003C000FE4F998190838F5F8093730280937202B6
:1003D00005C061E0CE0101960E946D0181E090E0D0
:1003E0000F90DF91CF910895FC0173836283158292
:1003F000148289E89EEF978786878FEF9FEF918B16
:10040000808B0895EF92FF920F931F93CF93DF930A
:100410007C0180912B038823E1F310922B03E701E9
:1004200000E010E0F70184819581081719070CF5A9
:10043000EE81FF8184819581D70112962D913C91A7
:100440001397280F391F35832483428153818E816E
:100450009F81241735074CF015821482DC01ED9141
:10046000FC910280F381E02D09950F5F1F4F2296CA
:10047000D9CFDF91CF911F910F91FF90EF90089509
:10048000FC0124813581293031057CF4F901339652
:10049000EE0FFF1FE80FF91F718360832F5F3F4F3F
:1004A000FC013583248381E0089580E00895FC01F8
:1004B00073836283158214820895CF92DF92EF9244
:1004C000FF920F931F93CF93DF93CDB7DEB7C65044
:1004D000D1400FB6F894DEBF0FBECDBF6C01CF5F29
:1004E000DE4F19821882C150D140CD5FDE4F198294
:1004F0001882C350D140CB5FDE4F19821882C5509D
:10050000D140CE018F5F9E4F0E943908CB5FDE4FF6
:1005100008811981C550D1400F3F110509F070F5D0
:10052000098378018FEFE81AF80A0115110511F413
:100530001A8212C0CF5FDE4F68817981C150D140ED
:10054000A801CE0102960E94930FE2E0F0E0EC0FCA
:10055000FD1FE00FF11F1082D60116968D919C9120
:100560001797DC01ED91FC910280F381E02DA7014A
:10057000BE016F5F7F4F099511E001C010E0CE0111
:100580008F5F9E4F0E945008812FCA5FDE4F0FB6CB
:10059000F894DEBF0FBECDBFDF91CF911F910F91B9
:1005A000FF90EF90DF90CF900895CF92DF92FF926F
:1005B0000F931F93CF93DF93CDB7DEB768970FB636
:1005C000F894DEBF0FBECDBF8C01DC011896CD9034
:1005D000DC901997F601F08081E080930E02F09292
:1005E0008201109273021092720260E089E193E03E
:1005F0000E94C50180917202813208F046C090913C
:1006000071029111FCCF92E09093710291E090936E
:1006100070029FEF9093CA011092EC018093EB015E
:10062000AEEEB1E02BEC31E0F9019E2F921B981752
:1006300018F49D919193F9CF1092ED018091ED0105
:10064000FF0CF82AF092ED0180916F02813061F485
:1006500010926F028091ED018093BB008091BC00ED
:1006600083FDF8CF85EC01C085EE8093BC008091BE
:1006700071028230E1F38091CA018F3F31F08091A5
:10068000CA01803211F08091CA0110927302109257
:10069000720210920E02D6018C919091710291110A
:1006A000FCCF91E090937102909370022FEF209312
:1006B000CA011092EC011092EB019093ED01909120
:1006C000ED01880F892B8093ED0180916F028130BD
:1006D00061F410926F028091ED018093BB008091D4
:1006E000BC0083FDF8CF85EC01C085EE8093BC0093
:1006F000809171028130E1F38091EC01811103C09E
:100700008091EC0101C081E0ABECB1E02FE032E080
:10071000F9019E2F921B981718F49D919193F9CF90
:100720001092750280937402811101C0FFCF89E19C
:1007300093E00E944301F801268537852817390781
:1007400009F47AC0978786874AE0BC01CE010796F4
:100750000E9455086AE671E0CE0101960E948D085C
:10076000BE01695F7F4FCE0101960E94E6070E949D
:10077000FA08CE0101960E945008CE0107960E9409
:100780005008D8011E966D917C911F974AE0CE01CA
:1007900007960E9455086AE671E0CE0101960E9414
:1007A0008D08BE01695F7F4FCE0101960E94E6076A
:1007B0001E861D86188A1F861A8A198ABC01CE01D8
:1007C0000D960E94390860E871E0CE0143960E94C0
:1007D0008D08BE01635F7F4FCE0143960E943908AA
:1007E000BE016D5E7F4FF801848595850E945D0294
:1007F000CE0143960E945008CE010D960E945008EB
:10080000CE0101960E945008CE0107960E94500822
:10081000D8011696CD90DC9017971E966D917C911D
:100820001F97072E000C880B990B0E94E70CF6010E
:100830006487758786879787D8011696ED91FC9116
:1008400017976285738550968D919C915197861765
:10085000970701F151967C936E9350974AE0CE0131
:1008600007960E9455086EE671E0CE0101960E943F
:100870008D08BE01695F7F4FCE0101960E94E60799
:100880000E94FA08CE0101960E945008CE010796F8
:100890000E94500868960FB6F894DEBF0FBECDBF19
:1008A000DF91CF911F910F91FF90DF90CF9008952E
:1008B0008F929F92AF92BF92CF92DF92EF92FF9270
:1008C0000F931F93CF93DF9300D000D000D0CDB70C
:1008D000DEB70E945F094B015C0182E3C82ED12C78
:1008E000E12CF12C0E945F09DC01CB0188199909E8
:1008F000AA09BB09883E9340A105B10558F021E043
:10090000C21AD108E108F10888EE880E83E0981E2B
:10091000A11CB11CC114D104E104F10419F78CE746
:1009200092E00E942C07892B39F18CE792E00E941B
:100930000A0789831A820091290310912A030F5F05
:100940001F4FB80185E293E00E94BF07882339F367
:1009500020912503309126038091290390912A0349
:10096000BE016F5F7F4F820F931F0E948C0F109309
:100970002A0300932903D3CF1A8219821C821B8277
:100980001E821D8265E273E0CE0101960E94390845
:1009900086E090E00E94870D8C0160E871E00E9483
:1009A0008D08BE016F5F7F4FC8010E943908109308
:1009B0007B0200937A02CE0101960E94500826968F
:1009C0000FB6F894DEBF0FBECDBFDF91CF911F9160
:1009D0000F91FF90EF90DF90CF90BF90AF909F90DE
:1009E0008F9008950E94380781110C94580408953F
:1009F000FC01848DDF01A80FB11DA35ABF4F2C91BC
:100A0000848D90E001968F739927848FA689B7898A
:100A10002C93A089B1898C9180648C93938D848D63
:100A2000981306C00288F389E02D80818F7D808332
:100A300008951F920F920FB60F9211242F933F9398
:100A40004F935F936F937F938F939F93AF93BF93D6
:100A5000EF93FF93E0917802F0917902309709F4D7
:100A600051C0968DA685B785858591FF04C09C9160
:100A7000892329F447C09C91892309F043C0A389A5
:100A8000B4899C918589809589238C9386899789DF
:100A90000197F1F7608D718DA685B785558538E092
:100AA00020E0CB010197F1F7822F90E09595879593
:100AB000282F4C91452309F02068315091F7868DFD
:100AC00081FD20958091770290E001968F739927A0
:100AD00030917602381749F0A0917702B0E0A15D1D
:100AE000BD4F2C938093770203C0868D8160868FE3
:100AF000828D938D0197F1F7A389B4899C918589A3
:100B0000892B8C93FF91EF91BF91AF919F918F9122
:100B10007F916F915F914F913F912F910F900FBEF9
:100B20000F901F9018951F920F920FB60F921124DD
:100B30002F933F934F935F936F937F938F939F93E5
:100B4000AF93BF93EF93FF938091B900887F803676
:100B500009F49CC068F5883209F45BC090F48031D8
:100B600009F454C038F4882309F4F6C0883009F435
:100B70004DC0F6C0883109F44CC0803209F45DC024
:100B8000EFC0803409F468C048F4803309F455C0DC
:100B9000883309F0E5C08093CA01D8C0803509F4D4
:100BA0004FC0883509F45DC0883409F0D9C0D6C07B
:100BB000883909F4C7C0A8F4883709F467C038F445
:100BC000883609F463C0803709F460C0C9C088382A
:100BD00009F4B8C0803909F45FC0803809F0C0C09A
:100BE0005BC0803B09F486C038F4803A09F466C0E3
:100BF000883A09F47FC0B4C0803C09F4A7C0883C9F
:100C000009F4A4C0883B09F48AC0AAC08091ED0110
:100C100010C09091EC018091EB01981770F5E09174
:100C2000EC0181E08E0F8093EC01F0E0E553FE4F84
:100C300080818093BB0085EC86C08093CA018EC002
:100C4000E091EC0181E08E0F8093EC018091BB007C
:100C5000F0E0E553FE4F80839091EC018091EB0131
:100C60006EC0E091EC0181E08E0F8093EC018091E9
:100C7000BB00F0E0E553FE4F80838091700281114C
:100C80006DC081E080936F0284EA61C083E080934D
:100C900071021092C901CFCF8091C901803208F052
:100CA00051C0E091C90181E08E0F8093C90180910C
:100CB000BB00F0E0E755FE4F8083BDCF85EC80930D
:100CC000BC00109271028091C901803230F4E09131
:100CD000C901F0E0E755FE4F10826091C90170E054
:100CE000E091A701F091A80189EA91E0099510929D
:100CF000C90136C084E0809371021092A60110925F
:100D0000A501E091A301F091A40109958091A501AD
:100D1000811105C081E08093A50110928301E091CB
:100D2000A60181E08E0F8093A601F0E0ED57FE4F03
:100D300080818093BB009091A6018091A5019817B6
:100D400008F479CF85E88093BC000AC085EC8093D5
:100D5000BC001092710204C01092CA010E9463018B
:100D6000FF91EF91BF91AF919F918F917F916F9183
:100D70005F914F913F912F910F900FBE0F901F9059
:100D800018951F920F920FB60F9211248F9381E046
:100D900080932B038F910F900FBE0F901F9018958B
:100DA000CF92DF92EF92FF920F931F93CF93DF9337
:100DB0006C017A018B01C0E0D0E0CE15DF0589F02F
:100DC000D8016D918D01D601ED91FC910190F081DA
:100DD000E02DC6010995892B11F47E0102C02196F0
:100DE000ECCFC701DF91CF911F910F91FF90EF9052
:100DF000DF90CF900895FC01538D448D252F30E076
:100E0000842F90E0821B930B541710F0CF96089517
:100E100001970895FC01918D828D981761F0828D64
:100E2000DF01A80FB11D5D968C91928D9F5F9F731E
:100E3000928F90E008958FEF9FEF0895FC01918DC0
:100E4000828D981731F0828DE80FF11D858D90E02D
:100E500008958FEF9FEF0895FC01918D228D892FCA
:100E600090E0805C9F4F821B91098F7399270895B2
:100E70008CE792E00E942C0721E0892B09F420E006
:100E8000822F08950E947E0FCF93DF93EC0188811B
:100E90009981009711F00E941C0E198218821D8200
:100EA0001C821B821A82DF91CF910895EF92FF92EC
:100EB0000F931F93CF93DF93EC0181E0888F9B8D7D
:100EC0008C8D981305C0E889F989808185FD24C03F
:100ED000F62E0B8D10E00F5F1F4F0F731127E02EC2
:100EE0008C8DE8120CC00FB607FCFACFE889F9899F
:100EF000808185FFF5CFCE010E94F804F1CF8B8D64
:100F0000FE01E80FF11DE35AFF4FF0820B8FEA89D3
:100F1000FB898081806207C0EE89FF896083E88950
:100F2000F98980818064808381E090E0DF91CF91B6
:100F30001F910F91FF90EF900895CF93DF93EC01F5
:100F4000888D8823C9F0EA89FB89808185FD05C0E9
:100F5000A889B9898C9186FD0FC00FB607FCF5CF23
:100F6000808185FFF2CFA889B9898C9185FFEDCF6B
:100F7000CE010E94F804E7CFDF91CF9108950F933F
:100F80001F93CF93DF93EC0188819981009729F01B
:100F90002A813B812617370788F48B016F5F7F4FCB
:100FA0000E94B40E009761F0998388831B830A83A3
:100FB0002C813D81232B11F4FC01108281E001C0C2
:100FC00080E0DF91CF911F910F910895EF92FF92F2
:100FD0000F931F93CF93DF93EC01FB0184819581E5
:100FE000E080F1800C811D81E114F104B1F00097E3
:100FF000B9F0080F191FB801CE010E94BF0788235E
:1010000061F0288139818C819D81B701820F931F06
:101010000E948C0F1D830C8303C0CE010E944407E5
:10102000CE01DF91CF911F910F91FF90EF90089526
:10103000EF92FF920F931F93CF93DF93EC017B010D
:101040008A01BA010E94BF07811104C0CE010E942B
:10105000440707C01D830C83B701888199810E94D2
:101060008C0FCE01DF91CF911F910F91FF90EF90E8
:101070000895CF93DF93EC01FB018617970761F08A
:10108000608171816115710529F0448155810E944B
:10109000180802C00E944407CE01DF91CF91089545
:1010A000FC01808191810C941C0EEF92FF920F93B2
:1010B0001F93CF93DF93CDB7DEB762970FB6F89447
:1010C000DEBF0FBECDBF8C01CB01F80111821082B3
:1010D000138212821582148250E09E012F5F3F4FCF
:1010E0007901B9010E94A50CF70101900020E9F7F0
:1010F0003197AF014E195F09B701C8010E94180866
:1011000062960FB6F894DEBF0FBECDBFDF91CF91D0
:101110001F910F91FF90EF900895FC0111821082B2
:1011200013821282158214826115710551F0FB0140
:1011300001900020E9F73197AF01461B570B0C9443
:10114000180808951F920F920FB60F9211242F9333
:101150003F934F935F936F937F938F939F93AF933F
:10116000BF93EF93FF938CE792E00E94F804FF9106
:10117000EF91BF91AF919F918F917F916F915F910F
:101180004F913F912F910F900FBE0F901F90189588
:101190001F920F920FB60F9211242F938F939F934C
:1011A000EF93FF93E0918C02F0918D028081E091AA
:1011B0009202F091930282FD12C09081809195027B
:1011C0008F5F8F7320919602821751F0E091950204
:1011D000F0E0E458FD4F958F8093950201C0808127
:1011E000FF91EF919F918F912F910F900FBE0F90D4
:1011F0001F901895CF93DF93FC0144815581608146
:1012000071818CE792E00E94D006EC0142E050E050
:101210006EE771E08CE792E00E94D0068C0F9D1F74
:10122000DF91CF91089590E0FC01E255FF4F34919A
:10123000FC01E656FF4F2491FC01EA57FF4FE49171
:10124000EE2309F43BC0332339F1333091F038F405
:101250003130A9F0323001F584B58F7D12C03730BE
:1012600091F03830A1F03430B9F4809180008F7D56
:1012700003C0809180008F77809380000DC084B57B
:101280008F7784BD09C08091B0008F7703C08091B3
:10129000B0008F7D8093B000F0E0EE0FFF1FE458A8
:1012A000FF4FA591B4918FB7F894EC91611103C0F1
:1012B00020952E2301C02E2B2C938FBF08953FB76E
:1012C000F89480914C0390914D03A0914E03B091FE
:1012D0004F0326B5A89B05C02F3F19F00196A11D0D
:1012E000B11D3FBFBA2FA92F982F8827820F911DBC
:1012F000A11DB11DBC01CD0142E0660F771F881F03
:10130000991F4A95D1F708951F920F920FB60F9229
:1013100011242F933F938F939F93AF93BF9380910B
:10132000480390914903A0914A03B0914B03309137
:10133000470323E0230F2D3720F40196A11DB11D93
:1013400005C026E8230F0296A11DB11D2093470377
:101350008093480390934903A0934A03B0934B03AF
:1013600080914C0390914D03A0914E03B0914F0397
:101370000196A11DB11D80934C0390934D03A09342
:101380004E03B0934F03BF91AF919F918F913F91C7
:101390002F910F900FBE0F901F90189585E293E04C
:1013A0000C945008CF93DF9300D000D000D0CDB77D
:1013B000DEB7789484B5826084BD84B5816084BDD5
:1013C00085B5826085BD85B5816085BD80916E00E3
:1013D000816080936E001092810080918100826014
:1013E0008093810080918100816080938100809151
:1013F00080008160809380008091B1008460809340
:10140000B1008091B00081608093B00080917A003B
:10141000846080937A0080917A00826080937A0061
:1014200080917A00816080937A0080917A00806850
:1014300080937A001092C10080E190E00E94870DB5
:101440007C018C010C5F1F4F60E871E0C8010E94B5
:101450008D08D70111961C921E9213961C921E9213
:10146000129740E050E060E871E0C8010E9418085F
:10147000F70113861286148615861686178689E16B
:1014800090E090932F0380932E03F89410928000A5
:1014900010928100109285001092840089E991E0F9
:1014A0009093890080938800809181008860809368
:1014B00081008091810085608093810080916F0020
:1014C000826080936F007894109231031092300301
:1014D00082E090E00E94870D5C0188E490E0F501D5
:1014E000918380831092750210927402109273029D
:1014F0001092720210927102992493949092700249
:1015000010926F0261E082E10E94130961E083E1C1
:101510000E9413098091B9008E7F8093B900809159
:10152000B9008D7F8093B90088E48093B80085E48A
:101530008093BC0088E090E00E94870D6C0160E819
:1015400071E00E948D088FE190E00E94870D8C0170
:10155000DC0113961C921E92129788EE93E0A0E095
:10156000B0E0F80184839583A683B7838AE091E095
:1015700091838083178A168A118E108E138E128E95
:10158000158E148E868D8E7F8D7F868F86958170C9
:10159000682F692583E00E941309EDE9F0E02491AA
:1015A000E9E8F0E08491882399F090E0880F991F92
:1015B000FC01E859FF4FA591B491FC01E458FF4F9D
:1015C000859194918FB7F894EC912E2B2C938FBF2B
:1015D000EDE9F0E0E491D8015096EC93E9E8F0E011
:1015E000E491F0E0EE0FFF1FE458FF4F85919491D6
:1015F000F801928B818BECE9F0E02491E8E8F0E0CF
:1016000084918823D1F090E0880F991FFC01E8595C
:10161000FF4FA591B491FC01E458FF4F859194913F
:101620004FB7F8943C91E22FE095232F2E232C9373
:10163000DC012C91E223EC934FBFF801868D81FDF4
:1016400004C061E082E00E94130982E0D8011C9688
:101650008C931C97ECE9F0E0E4911D96EC93E8E89C
:10166000F0E0E491F0E0EE0FFF1FEE58FF4F8591A0
:101670009491F80197878687D60117961C930E934D
:10168000169781E090E00E94870D8C0160E071E088
:10169000C6010E94BF07D6011696ED91FC911797DF
:1016A000138E128E118E108E178A168A8DE991E094
:1016B000958F848F8485863108F04DC02DEB30E006
:1016C000378B268B2BE931E0318F208F2CE231E0F4
:1016D000338F228F90916800883050F021E08E3057
:1016E00008F420E081E001C0880F2A95EAF701C0E4
:1016F00084E0892B809368008485883038F08E30B0
:1017000040F0863148F020E030E008C02DE630E0BF
:1017100005C02BE630E002C02CE630E0348B238B92
:10172000883030F491E001C0990F8A95EAF70EC035
:10173000282F30E08E3018F42850310902C02E5086
:10174000310991E001C0990F2A95EAF7958B848DB4
:10175000958D0197F1F7828D938D892B49F14091F9
:101760007802509179024E175F0711F1411551052A
:1017700071F0DA0153962D913C915497D9019C91C7
:10178000DA0155968C9180958923D9018C93868DA9
:101790008E7F868F1092770210927602F0937902F4
:1017A000E0937802A389B4899C918589892B8C93D5
:1017B000E0918C02F0918D0282E08083E0918802BA
:1017C000F09189021082E0918A02F0918B028FECF5
:1017D000808310929402E0919002F091910286E051
:1017E0008083E0918E02F0918F02808180618083FE
:1017F000E0918E02F0918F02808188608083E09179
:101800008E02F0918F02808180688083E0918E0249
:10181000F0918F0280818F7D808360E071E085E2AE
:1018200093E00E94BF0740E050E060E871E085E28D
:1018300093E00E94180810927B0210927A0262E7ED
:1018400071E0CE0101960E948D08CE0101960E94A2
:10185000FA08CE0101960E94500882E190E00E94B1
:10186000870D4C018CE191E0F40191838083F78234
:10187000E682B186A08613870287D586C48669E191
:1018800070E0C4010E94F401B4018CE293E00E9474
:10189000400267E771E0CE0101960E948D08CE01FB
:1018A00001960E94FA08CE0101960E9450088CE22F
:1018B00093E00E9402020E94F204F9CFECE7F2E00A
:1018C0001382128288EE93E0A0E0B0E084839583D7
:1018D000A683B78324E231E03183208325EC30E016
:1018E0003587248724EC30E03787268720EC30E0EA
:1018F000318B208B21EC30E0338B228B22EC30E0DB
:10190000358B248B26EC30E0378B268B118E128E94
:10191000138E148EE9E1F3E013821282848395839F
:10192000A683B78386E391E09183808360E871E0CA
:1019300085E293E00E948D0886E691E090932D0366
:1019400080932C0310922B0308954532510520F407
:10195000423010F00C94B00CFB011082CB010895C2
:10196000BB274A3031F4992322F4BDE2909581954A
:101970009F4F0C94BC0CBB27FB015527AA27880F4F
:10198000991FAA1FA41710F0A41B83955051B9F7F3
:10199000A05DAA3308F0A95DA193009779F7B11172
:1019A000B1931192CB010C94D50CDC01FC01672F93
:1019B00071917723E1F7329704C07C916D93708326
:1019C0006291AE17BF07C8F30895E89409C097FB6A
:1019D0003EF490958095709561957F4F8F4F9F4F06
:1019E0009923A9F0F92F96E9BB279395F69587954A
:1019F00077956795B795F111F8CFFAF4BB0F11F40D
:101A000060FF1BC06F5F7F4F8F4F9F4F16C08823B3
:101A100011F096E911C0772321F09EE8872F762FE9
:101A200005C0662371F096E8862F70E060E02AF02A
:101A30009A95660F771F881FDAF7880F9695879516
:101A400097F908952F923F924F925F926F927F92F3
:101A50008F929F92AF92BF92CF92DF92EF92FF92BE
:101A60000F931F93CF93DF93CDB7DEB7CA1BDB0B6A
:101A70000FB6F894DEBF0FBECDBF09942A8839880F
:101A800048885F846E847D848C849B84AA84B98416
:101A9000C884DF80EE80FD800C811B81AA81B98122
:101AA000CE0FD11D0FB6F894DEBF0FBECDBFED0136
:101AB000089597FB072E16F4009407D077FD09D000
:101AC0000E946D0D07FC05D03EF4909581959F4FC7
:101AD0000895709561957F4F0895AA1BBB1B51E136
:101AE00007C0AA1FBB1FA617B70710F0A61BB70B8E
:101AF000881F991F5A95A9F780959095BC01CD0133
:101B00000895EE0FFF1F0590F491E02D0994CF93F7
:101B1000DF938230910510F482E090E0E09152036F
:101B2000F091530320E030E0C0E0D0E0309711F1B5
:101B30004081518148175907C0F04817590761F48F
:101B400082819381209719F09B838A832BC0909385
:101B500053038093520326C02115310519F0421713
:101B6000530718F49A01BE01DF01EF010280F381EF
:101B7000E02DDCCF2115310509F1281B390B24306C
:101B8000310590F412968D919C9113976115710512
:101B900021F0FB019383828304C0909353038093CD
:101BA0005203FD01329644C0FD01E20FF31F819301
:101BB0009193225031092D933C933AC020915003C8
:101BC00030915103232B41F4209102013091030104
:101BD0003093510320935003209100013091010173
:101BE0002115310541F42DB73EB7409104015091C4
:101BF0000501241B350BE0915003F0915103E217CE
:101C0000F307A0F42E1B3F0B2817390778F0AC011F
:101C10004E5F5F4F2417350748F04E0F5F1F5093FC
:101C20005103409350038193919302C0E0E0F0E0B0
:101C3000CF01DF91CF9108950F931F93CF93DF933F
:101C4000009709F48CC0FC01329713821282009134
:101C50005203109153030115110581F42081318144
:101C6000820F931F20915003309151032817390799
:101C700079F5F0935103E093500371C0D80140E02F
:101C800050E0AE17BF0750F412962D913C91139778
:101C9000AD012115310509F1D901F3CF9D01DA011B
:101CA0003383228360817181860F971F8217930788
:101CB00069F4EC0128813981260F371F2E5F3F4FD1
:101CC000318320838A819B8193838283452B29F4EE
:101CD000F0935303E093520342C01396FC93EE93A8
:101CE0001297ED01499159919E01240F351FE2177A
:101CF000F30771F480819181840F951F02961196EC
:101D00009C938E938281938113969C938E931297CA
:101D1000E0E0F0E0D80112968D919C911397009726
:101D200019F0F8018C01F6CF8D919C9198012E5FEE
:101D30003F4F820F931F209150033091510328177A
:101D4000390769F4309729F4109253031092520323
:101D500002C0138212821093510300935003DF914B
:101D6000CF911F910F910895A0E0B0E0EAEBFEE063
:101D70000C94260DEC01009721F4CB010E94870DF5
:101D8000B8C0FC01E60FF71F9C0122503109E21791
:101D9000F30708F4ACC0D9010D911C9111970617F7
:101DA0001707B0F00530110508F49FC0C80104976B
:101DB0008617970708F499C002501109061B170BE4
:101DC000019311936D937C93CF010E941C0E8DC0E3
:101DD0005B01A01AB10A4C01800E911EA091520322
:101DE000B091530340E050E0E12CF12C109709F43E
:101DF0004AC0A815B905D1F56D907C901197630183
:101E000082E0C80ED11CCA14DB0480F1A3014A1978
:101E10005B096A0182E0C80ED11C1296BC90129731
:101E20001396AC91B5E0CB16D10440F0B282A383F7
:101E300051834083D9016D937C930AC00E5F1F4F7D
:101E4000C301800F911FF90191838083EB2DFA2F3D
:101E5000E114F10431F0D7011396FC93EE9312973D
:101E600044C0F0935303E09352033FC08D919C9183
:101E700011974817590708F4AC017D0112960D908F
:101E8000BC91A02DB3CF8091500390915103881540
:101E90009905E1F446175707C8F480910001909125
:101EA0000101009741F48DB79EB740910401509114
:101EB0000501841B950BE817F907C8F4F09351034B
:101EC000E0935003F901718360830FC0CB010E943E
:101ED000870D7C01009759F0A801BE010E94830F75
:101EE000CE010E941C0EC70104C0CE0102C080E0DA
:101EF00090E0CDB7DEB7EEE00C94420D81E090E0CB
:101F0000F8940C94A20FFB01DC0102C001900D9229
:101F100041505040D8F70895FB01DC0101900D922B
:101F20000020E1F70895FB01DC014150504048F0EA
:101F300001900D920020C9F701C01D924150504000
:101F4000E0F7089510E0C2E6D0E004C0FE010E9470
:0E1F5000810D2196C336D107C9F7F894FFCF53
:101F5E0000005403800000000000A600D0066001BF
:101F6E00A500FA0012018D0000000000F401D50258
:101F7E00000000005607D006FB069D072C070A0737
:101F8E001E0700000000C5019501600133015701D5
:101F9E0043013401000000004207D00660015F01DA
:101FAE00420742074207000000004207D0066001C8
:101FBE005F01000000004002020255543A005549EC
:101FCE003A005445535400544553543031000D0AD1
:021FDE00000001
:00000001FF
