:100000000C94E0000C9408010C9408010C94080175
:100010000C9408010C9408010C9408010C9408013C
:100020000C9408010C9408010C9408010C94E50A46
:100030000C9408010C9408010C9408010C9408011C
:100040000C944F0C0C9408010C94B30A0C948D0A78
:100050000C9408010C9408010C9408010C940801FC
:100060000C9408010C94080100407A10F35A00A087
:10007000724E18090010A5D4E80000E87648170071
:1000800000E40B54020000CA9A3B000000E1F505B1
:10009000000080969800000040420F000000A086FB
:1000A00001000000102700000000E803000000002D
:1000B0006400000000000A000000000001000000D1
:1000C00000002C76D888DC674F0823DFC1DFAE59EB
:1000D000E1B1B796E5E3E453C63AE651997696E87E
:1000E000E6C28426EB898C9B62ED407C6FFCEFBC02
:1000F0009C9F40F2BAA56FA5F490055A2AF75C932D
:100100006B6CF9676DC11BFCE0E40D47FEF520E662
:10011000B500D0ED902E0300943577050080841E45
:10012000080000204E0A000000C80C333333330FA0
:10013000986E12831141EF8D2114893BE65516CF3D
:10014000FEE6DB18D1844B381BF77C1D901DA4BB49
:10015000E424203284725E228100C9F124ECA1E5FE
:100160003D2700000000240027002A0000000000B6
:10017000250028002B000000000023002600290095
:10018000040404040404040402020202020203033D
:100190000303030301020408102040800102040845
:1001A00010200102040810200000000800020100D5
:1001B000000304070000000000000000FF0EFB0E1B
:1001C00011241FBECFEFD8E0DEBFCDBF22E0A4EDEB
:1001D000B1E001C01D92A23AB207E1F711E0A0E040
:1001E000B1E0EAEBFCE202C005900D92A43DB1073C
:1001F000D9F710E0CFEDD0E004C02197FE010E94B6
:100200003514CE3DD107C9F70E94FD0C0C94501651
:100210000C940000FC01738362831582148208959C
:10022000CF93DF93EC018E859F8581309105D1F0CE
:100230001CF4892B49F08CC08230910509F452C01E
:10024000039709F440C084C0E889F9898181882333
:1002500009F47EC01F821E821B861A8611821282BA
:10026000108246C0E889F9898281882311F01282C0
:1002700069C08E819F8101969F838E838897DCF46D
:100280006A857B856B5F7F4F7B876A878C859D85C1
:10029000DC01ED91FC910480F581E02D09958A85C2
:1002A0009B858A3F91050CF453C0E889F989118236
:1002B00081E0838303C081E08383118219861886DD
:1002C00083E090E043C08885998501969987888767
:1002D000E889F9892081222379F18281811132C054
:1002E000138236C0E889F9898181882321F011823F
:1002F00081E090E02BC08E819F8101979F838E8348
:1003000097FD16C06A857B85655071097B876A8772
:100310008C859D85DC01ED91FC910480F581E02DBB
:1003200009958A859B851816190694F0E889F9893C
:1003300012821F861E860CC0893C91051CF48281A6
:10034000882331F01382108282E090E09F878E87AD
:10035000DF91CF910895CF93DF93EC017B836A8384
:100360001D821C821F861E868C859D85DC01ED9179
:10037000FC910190F081E02D09958C859D85DC0133
:10038000ED91FC910480F581E02D60E070E0DF915B
:10039000CF9109940F931F93CF93DF93CB01EA0181
:1003A00089013A95DB01ED91FC910480F581E02D06
:1003B0002F3F310560F46FEF70E00995E881F98116
:1003C000B8016F5F71090480F581E02D1DC00F3FFA
:1003D000110509F010F4B80104C017FF0BC060E06C
:1003E00070E00995E881F9810480F581E02D60E0F5
:1003F00070E00AC06FEF70E00995E881F981048030
:10040000F581E02D6FEF70E0CE01DF91CF911F916C
:100410000F910994CF93DF93EC017B836A831D8254
:100420001C821B861A868E819F81DC01ED91FC91D6
:100430000190F081E02D09958E819F81DC01ED9185
:10044000FC910480F581E02D60E070E009958885DD
:100450009985DC01ED91FC910190F081E02D0995E9
:1004600088859985DC01ED91FC910480F581E02D72
:1004700060E070E0DF91CF910994FC0173836283A7
:1004800015821482138612860895FC017383628399
:100490001582148208950F931F93CF93DF9300D09A
:1004A00000D000D0CDB7DEB78C01DC011A968D915B
:1004B0009C911B9781309105F1F08230910509F4F0
:1004C00047C0892B09F069C01896ED91FC911997E6
:1004D0008381882309F461C016968D919C911797AA
:1004E000DC01ED91FC910190F081E02D09958823CC
:1004F00009F447C015C0D8011896ED91FC911997E1
:100500008381882369F116968D919C911797DC0160
:10051000ED91FC910190F081E02D09958823E9F19E
:1005200066E771E0CE0101960E94D809CE010196DE
:100530000E941D0BCE0101960E94A309D8011896B6
:10054000ED91FC91199781E0808382E090E021C0D9
:10055000D8011896ED91FC9119978381811104C0FF
:10056000F8011386128619C016968D919C911797E3
:10057000DC01ED91FC910190F081E02D0995811154
:100580000CC0D8011896ED91FC911997108281E06A
:1005900090E01B969C938E931A9726960FB6F8942C
:1005A000DEBF0FBECDBFDF91CF911F910F91089598
:1005B000CF92DF92EF92FF921F93CF93DF9300D001
:1005C00000D000D0CDB7DEB76C01DC011A968D915A
:1005D0009C911B97DC01ED91FC910190F081E02D45
:1005E00009958823B9F0F601E084F18420E030E039
:1005F00040E05FE3D70114966D917D918D919C91C0
:1006000017970E94C01187FD95C0F7018081811165
:1006100098C090C0E090D401F090D501E114F104AD
:1006200009F48FC01092D5011092D40163ED71E0EE
:1006300083E792E00E9475091A8219821C821B824C
:100640001E821D82B701CE0101960E948C098D8108
:100650009E81892B49F063E871E089819A810E942B
:10066000401611E0892B09F010E0CE0101960E949E
:10067000A309112341F0D6011896ED91FC91199729
:1006800081E081835EC01A8219821C821B821E82D5
:100690001D82B701CE0101960E948C098D819E8139
:1006A000892B51F061EA71E089819A810E9440169C
:1006B00011E0892B09F010E0CE0101960E94A309F8
:1006C000112319F1D6011896ED91FC9119978081AB
:1006D000882349F1808591850497029778F566EA29
:1006E00071E0CE0101960E94D809CE0101960E94C8
:1006F0001D0BCE0101960E94A309D6011896ED911B
:10070000FC91199781E082830EC068E871E0CE0108
:1007100001960E94D809CE0101960E941D0BCE01C0
:1007200001960E94A309C7010E94A309C7010E9464
:10073000D01407C081E0F701828303C069EA71E049
:10074000E6CF26960FB6F894DEBF0FBECDBFDF9181
:10075000CF911F91FF90EF90DF90CF900895FC0113
:10076000778366838085882319F084810C94CB0B72
:10077000089560E0FC0182810C945F0B61E0FC0154
:1007800082810C945F0BAF92BF92CF92DF92EF9277
:10079000FF920F931F93CF93DF93CDB7DEB72C97C4
:1007A0000FB6F894DEBF0FBECDBF8C01DC011A96E8
:1007B0008D919C911B978230910509F438C134F4D6
:1007C000009771F0019709F49CC025C3843091050E
:1007D00009F454C20CF4B3C1059709F4F8C21BC361
:1007E000D8011C96ED91FC911D978081882309F416
:1007F00012C31E968D919C911F97DC01ED91FC9187
:100800000190F081E02D09956B017C01D8011C96C7
:10081000ED91FC911D97648375838683978320E017
:1008200030E040E85FE30E94301418166CF4F801E1
:10083000408551856681778120E030E0C8010E94C3
:10084000CA0181E090E0B9C222E0B701A601CE0161
:1008500007960E94A80961EB71E0CE0101960E9403
:10086000D809BE01695F7F4FCE0101960E944309FE
:100870000E941D0BCE0101960E94A309CE0107968E
:100880000E94A3092DEC3CEC4CEC5DE3C701B601E2
:100890000E941B1326E636E646EE5EE30E948813AE
:1008A00020E030E04FE753E40E9426129B01AC01A8
:1008B00060E070E08FEF93E40E941B130E94FA1334
:1008C000F801408551850680F781E02D9B01BF012D
:1008D000C8010E94CA0120E030E040E05FE3C701A8
:1008E000B6010E94301418160CF492C02DEC3CECAA
:1008F0004CEC5DE3C701B6010E94C01187FF5BC2EB
:1009000072C2D8011C96ED91FC911D9780811896BA
:100910004D915C91199716966D917C91179720E0F7
:1009200030E0882309F4BCC1C8010E94CA01D80183
:100930001E968D919C911F97DC01ED91FC91019089
:10094000F081E02D09956B017C01D8011C96ED9199
:10095000FC911D97648375838683978320E030E044
:1009600040E85FE30E94C01118160CF454C222E064
:10097000B701A601CE0107960E94A80961EB71E0BC
:10098000CE0101960E94D809BE01695F7F4FCE015A
:1009900001960E9443090E941D0BCE0101960E9400
:1009A000A309CE0107960E94A3092DEC3CEC4CEC68
:1009B0005DE3C701B6010E941B1326E636E646EE4C
:1009C0005EE30E94881320E030E04FE753E40E948A
:1009D00026129B01AC0160E070E08FEF93E40E946F
:1009E0001B130E94FA13F801408551850680F78198
:1009F000E02D9B01BF01C8010E94CA0120E030E048
:100A000040E05FE3C701B6010E94301487FD03C0D8
:100A100082E090E0D2C12DEC3CEC4CEC5DE3C701F0
:100A2000B6010E94301418160CF00CC185C0D80114
:100A30001C96ED91FC911D978081882309F426C1B5
:100A4000D8011E968D919C911F97DC01ED91FC9130
:100A50000190F081E02D09956B017C012DEC3CECBF
:100A60004CEC5DE30E941B1326E636E646EE5EE3A1
:100A70000E94881320E030E04FE753E40E942612E2
:100A80009B01AC0160E070E08FEF93E40E941B13C8
:100A90000E94FA13F801408551850680F781E02D08
:100AA0009B01BF01C8010E94CA01D8011C96AD90EC
:100AB000BC901D97F501C482D582E682F78220E0C2
:100AC00030E040E85FE3C701B6010E943014181619
:100AD0000CF487C022E0B701A601CE0107960E9460
:100AE000A80961EB71E0CE0101960E94D809BE0110
:100AF000695F7F4FCE0101960E9443090E941D0B42
:100B0000CE0101960E94A309CE0107960E94A30977
:100B10002DEC3CEC4CEC5DE3C701B6010E94C0112A
:100B200087FD90C020E030E040E05FE3C701B60100
:100B30000E94C01187FF6FC183E090E064C1D801BB
:100B40001C96ED91FC911D978081882309F49EC02D
:100B5000D8011E968D919C911F97DC01ED91FC911F
:100B60000190F081E02D09956B017C012DEC3CECAE
:100B70004CEC5DE30E941B1326E636E646EE5EE390
:100B80000E94881320E030E04FE753E40E942612D1
:100B90009B01AC0160E070E08FEF93E40E941B13B7
:100BA0000E94FA13F801408551850680F781E02DF7
:100BB0009B01BF01C8010E94CA01D8011C96AD90DB
:100BC000BC901D97F501C482D582E682F78220E0B1
:100BD00030E040E85FE3C701B6010E943014181608
:100BE0004CF481E090E0D8011B969C938E931A9769
:100BF000F5010FC122E0B701A601CE0107960E94C0
:100C0000A80961EB71E0CE0101960E94D809BE01EE
:100C1000695F7F4FCE0101960E9443090E941D0B20
:100C2000CE0101960E94A309CE0107960E94A30956
:100C30002DEC3CEC4CEC5DE3C701B6010E94C01109
:100C400087FF11C06CEB71E0CE0101960E94D809BC
:100C5000CE0101960E941D0BCE0101960E94A309B0
:100C600084E090E0AAC020E030E040E05FE3C7010C
:100C7000B6010E94301487FDCEC090C0D8011C96EA
:100C8000ED91FC911D978081811116C018964D91B0
:100C90005C91199716966D917C91179720E030E042
:100CA000C8010E94CA01F801138612860484F585E2
:100CB000E02D11861086AFC0D80150968D919C9181
:100CC0005197DC01ED91FC910190F081E02D0995A7
:100CD000882389F068EC71E0CE0101960E94D80962
:100CE000CE0101960E941D0BCE0101960E94A30920
:100CF00085E090E088C0D8011E968D919C911F9749
:100D0000DC01ED91FC910190F081E02D09956B01E2
:100D10007C01F801A484B584D50114966D937D936C
:100D20008D939C93179720E030E040E85FE30E94AA
:100D3000301418165CF481E090E0F8019387828704
:100D4000D50119969C938E93189765C022E0B70140
:100D5000A601CE0107960E94A80961EB71E0CE01C1
:100D600001960E94D809BE01695F7F4FCE010196AE
:100D70000E9443090E941D0BCE0101960E94A30907
:100D8000CE0107960E94A30920E030E040E05FE337
:100D9000C701B6010E94301487FD03C082E090E0D5
:100DA00032C02DEC3CEC4CEC5DE3C701B6010E9477
:100DB000301487FD30C083E090E0D8011B969C93EF
:100DC0008E931A971C96ED91FC911D9722C0F80105
:100DD00080899189DC01ED91FC910190F081E02DF9
:100DE0000995811118C06CEB71E0CE0101960E944B
:100DF000D809CE0101960E941D0BCE0101960E94DA
:100E0000A30984E090E0F801938782870484F58544
:100E1000E02D918780872C960FB6F894DEBF0FBE29
:100E2000CDBFDF91CF911F910F91FF90EF90DF9099
:100E3000CF90BF90AF900895FC0182810E94360B45
:100E400021E0019709F020E0822F0895CF92DF92F0
:100E5000EF92FF920F931F93CF93DF936C017A0170
:100E60008B01C0E0D0E0CE15DF0589F0D8016D918F
:100E70008D01D601ED91FC910190F081E02DC6012C
:100E80000995892B11F47E0102C02196ECCFC70190
:100E9000DF91CF911F910F91FF90EF90DF90CF9056
:100EA0000895089580E090E00895FC01538D448DED
:100EB000252F30E0842F90E0821B930B541710F005
:100EC000CF96089501970895FC01918D828D981712
:100ED00061F0828DDF01A80FB11D5D968C91928D1E
:100EE0009F5F9F73928F90E008958FEF9FEF08951B
:100EF000FC01918D828D981731F0828DE80FF11DE4
:100F0000858D90E008958FEF9FEF0895FC01918DFE
:100F1000228D892F90E0805C9F4F821B91098F73F7
:100F20009927089586ED91E00E94860721E0892B9C
:100F300009F420E0822F0895FC01848DDF01A80FC1
:100F4000B11DA35ABF4F2C91848D90E001968F73F1
:100F50009927848FA689B7892C93A089B1898C9110
:100F600080648C93938D848D981306C00288F389D6
:100F7000E02D80818F7D80830895EF92FF920F9303
:100F80001F93CF93DF93EC0181E0888F9B8D8C8D35
:100F9000981305C0E889F989808185FD24C0F62E63
:100FA0000B8D10E00F5F1F4F0F731127E02E8C8DFC
:100FB000E8120CC00FB607FCFACFE889F9898081E6
:100FC00085FFF5CFCE010E949C07F1CF8B8DFE01EE
:100FD000E80FF11DE35AFF4FF0820B8FEA89FB897E
:100FE0008081806207C0EE89FF896083E889F98982
:100FF00080818064808381E090E0DF91CF911F91B8
:101000000F91FF90EF900895CF93DF93EC01888DBF
:101010008823C9F0EA89FB89808185FD05C0A889FC
:10102000B9898C9186FD0FC00FB607FCF5CF808182
:1010300085FFF2CFA889B9898C9185FFEDCFCE01CC
:101040000E949C07E7CFDF91CF910895EF92FF9226
:101050000F931F93CF93DF937C01809179028823B4
:10106000E1F310927902E70100E010E0F7018481DA
:101070009581081719070CF5EE81FF818481958110
:10108000D70112962D913C911397280F391F358364
:101090002483428153818E819F81241735074CF030
:1010A00015821482DC01ED91FC910280F381E02D28
:1010B00009950F5F1F4F2296D9CFDF91CF911F91D6
:1010C0000F91FF90EF900895FC0124813581293024
:1010D00031057CF4F9013396EE0FFF1FE80FF91F7D
:1010E000718360832F5F3F4FFC013583248381E050
:1010F000089580E008950E9432160F931F93CF93B6
:10110000DF93EC0188819981009729F02A813B8146
:101110002617370788F48B016F5F7F4F0E94681591
:10112000009761F0998388831B830A832C813D811A
:10113000232B11F4FC01108281E001C080E0DF91DB
:10114000CF911F910F910895CF93DF93EC01888188
:101150009981009711F00E94D014198218821D8283
:101160001C821B821A82DF91CF910895EF92FF9229
:101170000F931F93CF93DF93EC017B018A01BA0198
:101180000E947D08811104C0CE010E94A40807C0FE
:101190001D830C83B701888199810E944916CE0175
:1011A000DF91CF911F910F91FF90EF9008950F93D2
:1011B0001F93CF93DF93EC0160E088850E945F0B63
:1011C00087E090E00197F1F761E088850E945F0B6E
:1011D0008FE090E00197F1F760E088850E945F0B57
:1011E0002E813F813327F901EC56FE4F6491F901BE
:1011F000E058FE4FE491F0E0EE0FFF1FEA58FE4F7B
:101200008591949100E412E42FE030E0462F0E9493
:10121000990C611571058105910549F0DC01CB013F
:101220000196A11DB11DBC01CD019F7003C060E0FE
:1012300070E0CB010E94C51120E030E04AE754E4A1
:101240000E94881320E030E04AE754E40E948813AB
:1012500020E030E040E05FE30E9426122A813B81DB
:101260004C815D810E942612DF91CF911F910F91D9
:101270000895FC0182810E94360B21E0019709F05C
:1012800020E0822F0895EF92FF920F931F93CF9348
:10129000DF93EC01FB0184819581E080F1800C817A
:1012A0001D81E114F104B1F00097B9F0080F191F86
:1012B000B801CE010E947D08882361F02881398120
:1012C0008C819D81B701820F931F0E9449161D8357
:1012D0000C8303C0CE010E94A408CE01DF91CF9100
:1012E0001F910F91FF90EF900895CF93DF93EC0142
:1012F0006115710559F0FB0101900020E9F7319764
:10130000AF01461B570B0E94B60802C00E94A408FA
:10131000CE01DF91CF910895CF93DF93EC01FB01D4
:101320008617970761F0608171816115710529F059
:10133000448155810E94B60802C00E94A408CE01D3
:10134000DF91CF910895FC01808191810C94D0149C
:10135000EF92FF920F931F93CF93DF93CDB7DEB73A
:10136000A1970FB6F894DEBF0FBECDBF7C01CB01B5
:10137000BA01F7011182108213821282158214823F
:1013800042E0420F8E010F5F1F4F0E943A0FBC01D7
:10139000C7010E947509A1960FB6F894DEBF0FBE73
:1013A000CDBFDF91CF911F910F91FF90EF900895E6
:1013B000FC0111821082138212821582148261153F
:1013C000710551F0FB0101900020E9F73197AF0161
:1013D000461B570B0C94B60808958F929F92AF92BC
:1013E000BF92CF92DF92EF92FF920F931F93CF9312
:1013F000DF9300D000D000D0CDB7DEB70E942A0C1A
:101400004B015C0182E3C82ED12CE12CF12C0E940F
:101410002A0CDC01CB0188199909AA09BB09883E6D
:101420009340A105B10558F021E0C21AD108E108A6
:10143000F10888EE880E83E0981EA11CB11CC1142F
:10144000D104E104F10419F786ED91E00E948607CA
:10145000892B39F186ED91E00E94640789831A8215
:1014600000917702109178020F5F1F4FB80183E758
:1014700092E00E947D08882339F320917302309115
:1014800074028091770290917802BE016F5F7F4F66
:10149000820F931F0E9449161093780200937702DF
:1014A000D3CF1A8219821C821B821E821D8263E79F
:1014B00072E0CE0101960E948C0986E090E00E94C5
:1014C0003B148C0163ED71E00E94D809BE016F5F8F
:1014D0007F4FC8010E948C091093D5010093D4015D
:1014E000CE0101960E94A30926960FB6F894DEBF9E
:1014F0000FBECDBFDF91CF911F910F91FF90EF9065
:10150000DF90CF90BF90AF909F908F9008950E94F2
:10151000920781110C94ED0908951F920F920FB656
:101520000F9211242F933F934F935F936F937F9369
:101530008F939F93AF93BF93EF93FF9386ED91E0CB
:101540000E949C07FF91EF91BF91AF919F918F9166
:101550007F916F915F914F913F912F910F900FBEAF
:101560000F901F9018951F920F920FB60F92112493
:101570002F938F939F93EF93FF93E091E601F09168
:10158000E7018081E091EC01F091ED0182FD12C054
:1015900090818091EF018F5F8F732091F00182170E
:1015A00051F0E091EF01F0E0EA52FE4F958F809309
:1015B000EF0101C08081FF91EF919F918F912F9159
:1015C0000F900FBE0F901F9018951F920F920FB69D
:1015D0000F9211248F9381E0809379028F910F9065
:1015E0000FBE0F901F901895833081F028F4813042
:1015F00099F08230A1F008958730A9F08830B9F0D1
:101600008430D1F4809180008F7D03C08091800070
:101610008F7780938000089584B58F7702C084B55A
:101620008F7D84BD08958091B0008F7703C0809135
:10163000B0008F7D8093B0000895CF93DF93FC01BD
:10164000448155816081718186ED91E00E94260779
:10165000EC0142E050E061ED71E086ED91E00E9426
:1016600026078C0F9D1FDF91CF910895CF93DF93B5
:10167000282F30E0F901E855FE4F8491F901EC562E
:10168000FE4FD491F901E058FE4FC491CC2391F064
:1016900081110E94F40AEC2FF0E0EE0FFF1FEA58D0
:1016A000FE4FA591B491EC91ED2381E090E021F4FF
:1016B00080E002C080E090E0DF91CF9108951F9319
:1016C000CF93DF93282F30E0F901E855FE4F849146
:1016D000F901EC56FE4FD491F901E058FE4FC49148
:1016E000CC23C9F0162F81110E94F40AEC2FF0E0F0
:1016F000EE0FFF1FE459FE4FA591B4918FB7F894F8
:10170000111105C09C91ED2FE095E92302C0EC91E9
:10171000ED2BEC938FBFDF91CF911F910895CF9365
:10172000DF9390E0FC01EC56FE4F2491FC01E05861
:10173000FE4F8491882361F190E0880F991FFC018E
:10174000EE59FE4FC591D491FC01E459FE4FA5918D
:10175000B491611109C09FB7F894888120958223C4
:101760008883EC912E230BC0623061F49FB7F8940C
:101770003881822F809583238883EC912E2B2C93A4
:101780009FBF06C08FB7F894E8812E2B28838FBFA8
:10179000DF91CF9108951F93CF93DF93182FEB0123
:1017A00061E00E948F0B209711F460E004C0CF3FEE
:1017B000D10539F461E0812FDF91CF911F910C9415
:1017C0005F0BE12FF0E0E855FE4FE491E330F9F0D4
:1017D00048F4E130B9F0E230A1F584B5806284BD0F
:1017E000C8BD34C0E730E9F0E83019F1E43049F51C
:1017F00080918000806280938000D0938B00C093A2
:101800008A0024C084B5806884BDC7BD1FC0809194
:101810008000806880938000D0938900C093880006
:1018200015C08091B00080688093B000C093B30071
:101830000DC08091B00080628093B000C093B4006E
:1018400005C0C038D1050CF0B5CFAFCFDF91CF9137
:101850001F9108953FB7F89480919A0290919B024E
:10186000A0919C02B0919D0226B5A89B05C02F3F78
:1018700019F00196A11DB11D3FBFBA2FA92F982FB6
:101880008827820F911DA11DB11DBC01CD0142E031
:10189000660F771F881F991F4A95D1F708951F92E9
:1018A0000F920FB60F9211242F933F938F939F9314
:1018B000AF93BF938091960290919702A091980266
:1018C000B09199023091950223E0230F2D3720F437
:1018D0000196A11DB11D05C026E8230F0296A11D8A
:1018E000B11D209395028093960290939702A09346
:1018F0009802B093990280919A0290919B02A091D4
:101900009C02B0919D020196A11DB11D80939A0287
:1019100090939B02A0939C02B0939D02BF91AF91C4
:101920009F918F913F912F910F900FBE0F901F901D
:101930001895CF92DF92EF92FF920F931F93E82FAB
:10194000F92F05C0015011092109310961F1908178
:1019500096239417B9F305C00150110921093109E3
:1019600011F1908196239413F7CFC12CD12CE12C47
:10197000F12C0AC08FEFC81AD80AE80AF80A0C1529
:101980001D052E053F0579F080818623841791F38C
:101990006C2D7D2D8E2D9F2D1F910F91FF90EF901F
:1019A000DF90CF90089560E070E080E090E01F91BC
:1019B0000F91FF90EF90DF90CF900895CF93DF933A
:1019C000EC0160E070E08C810E94CB0B1886DF9107
:1019D000CF91089502970C94DE0CCF93DF93EC0126
:1019E0006E817F818C810E94CB0B81E08887DF91A3
:1019F000CF91089502970C94ED0CCF93DF9300D014
:101A000000D0CDB7DEB7789484B5826084BD84B54C
:101A1000816084BD85B5826085BD85B5816085BDE9
:101A200080916E00816080936E00109281008091A1
:101A30008100826080938100809181008160809329
:101A40008100809180008160809380008091B1004E
:101A500084608093B1008091B00081608093B00079
:101A600080917A00846080937A0080917A0082600D
:101A700080937A0080917A00816080937A008091CF
:101A80007A00806880937A001092C10089E190E02A
:101A900090937D0280937C02F894109280001092C3
:101AA0008100109285001092840089E991E0909362
:101AB00089008093880080918100886080938100F4
:101AC0008091810085608093810080916F008260A9
:101AD00080936F00789410927F0210927E028AE0C9
:101AE00090E00E943B149C838B83FC011082118246
:101AF0001282138280E090E0A0E8BFEB848395839C
:101B0000A683B78384E090E00E943B149C018AE0A6
:101B100091E0F901918380838CE090E0938382834C
:101B200060E029833A830E948F0B8AE090E00E9454
:101B30003B145C0180E191E0F5019183808380E0BA
:101B400090ECABEAB3E482839383A483B58387E00C
:101B500090E09783868388E090E09187808761E0BA
:101B60000E948F0B60E0F50186810E948F0B89E057
:101B700090E00E943B146C0180E3682E81E0782E97
:101B8000F6017182608296E1892E91E0992E93820E
:101B900082828BE090E09583848361E00E948F0BCA
:101BA0002EE1422E21E0522EF6015182408238E28F
:101BB000232E31E0332E3382228210861782168242
:101BC00089E090E00E943B147C01FC0171826082FC
:101BD0009382828285E090E09583848361E00E9415
:101BE0008F0BF70151824082338222821086178246
:101BF000168289E090E00E943B148C01FC01718206
:101C000060829382828286E090E09583848361E0A3
:101C10000E948F0BF801518240823382228210860B
:101C20001782168284E090E00E943B142C014AE364
:101C3000842E41E0942EFC019182808283E090E02A
:101C40009383828360E00E948F0B84E090E00E9487
:101C50003B141C01FC019182808282E090E093831E
:101C6000828360E00E948F0B81E090E00E943B1431
:101C70004C01E091E601F091E70182E08083E09180
:101C8000E201F091E3011082E091E401F091E501BD
:101C90008FEC80831092EE01E091EA01F091EB016C
:101CA00086E08083E091E801F091E9018081806124
:101CB0008083E091E801F091E90180818860808370
:101CC000E091E801F091E901808180688083E091F2
:101CD000E801F091E90180818F7D808360E071E00F
:101CE00083E792E00E947D0863ED71E083E792E074
:101CF0000E9475091092D5011092D4018CE090E0F9
:101D00000E943B143C0180E491E0F30191838083C5
:101D10008B819C81918780875386428697828682B9
:101D200064E670E0C3010E940A01B3018AE792E011
:101D30000E94640882E190E00E943B143C0188E428
:101D400091E0F301918380838B819C81918B808BC7
:101D5000D586C48662E370E0C3010E94AB01B30183
:101D60008AE792E00E9464088EE090E00E943B14B3
:101D70006C0180E591E0F6019183808329813A81AD
:101D8000378326838B819C81918780879586848683
:101D900064E670E0C6010E943D02B6018AE792E067
:101DA0000E94640884E190E00E943B146C0188E585
:101DB00091E0F601918380838B819C819587848754
:101DC000F782E68211870087B786A686318A208A45
:101DD000938A828A64E670E0C6010E940A02B60114
:101DE0008AE792E00E9464088AE792E00E9426084F
:101DF0000E94870AF9CF83E792E00C94A309E6EDED
:101E0000F1E01382128288EE93E0A0E0B0E08483D8
:101E10009583A683B78380E691E09183808385ECE8
:101E200090E09587848784EC90E09787868780ECA4
:101E300090E0918B808B81EC90E0938B828B82EC95
:101E400090E0958B848B86EC90E0978B868B118E3F
:101E5000128E138E148E63ED71E083E792E00E9480
:101E6000D80982E791E090937B0280937A021092E6
:101E700079020895EF920F931F93CF93DF93E801B8
:101E800047FD02C034E001C034E1E42F440FFF0BF2
:101E9000F7FF03C0F195E195F109E32E022F2E2FF4
:101EA000AE010E945A0FCE01DF91CF911F910F9189
:101EB000EF9008954F925F926F927F929F92AF92B0
:101EC000BF92CF92DF92EF92FF920F931F93CF9327
:101ED000DF93CDB7DEB729970FB6F894DEBF0FBEFC
:101EE000CDBF6A01122FB02E2BE3201720F0FF2464
:101EF000F394F00E02C0BCE3FB2E0F2D27E0AE01E1
:101F00004F5F5F4F0E94E810AC018981982F997054
:101F1000913031F0E1FC06C0E0FE06C090E205C061
:101F20009DE203C09BE201C090E0EE2DE07183FFD3
:101F30003CC0911102C083E001C084E0811718F415
:101F4000212F281B01C020E0E1110BC0F601822FD8
:101F500030E2882319F031938150FBCFC20ED11C9F
:101F600020E0992329F0D6019C93F60131966F0168
:101F7000C6010396E2FE0AC03EE4D6013C9341E46A
:101F800011964C93119712963C9306C03EE6F601CB
:101F9000308341E641833283FC01322F40E2332318
:101FA00009F442C041933150FACF82FF44C09111ED
:101FB00002C083E001C084E0811718F4212F281BA0
:101FC00001C020E0E1110BC0F601822F30E288232E
:101FD00019F031938150FBCFC20ED11C20E0992320
:101FE00029F0D6019C93F60131966F01C601039644
:101FF000E2FE0BC039E4D6013C933EE411963C93DB
:10200000119736E412963C9307C039E6F601308307
:102010003EE6318336E63283FC01322F40E2332341
:1020200019F041933150FBCFFC01E20FF11D1082FA
:102030008EEF9FEFB7C0F1E0911101C0F0E06F2F7C
:1020400070E01416150624F49A012F5F3F4F02C06A
:1020500021E030E0260F371FBB2029F06B2D70E008
:102060006F5F7F4F02C060E070E0260F371F612F67
:1020700070E0261737071CF4121B212F01C020E047
:102080003E2D387159F4D601322F60E2332319F016
:102090006D933150FBCFC20ED11C20E0FF2331F0F5
:1020A000D6019C93B6016F5F7F4F6B01E1110BC0AE
:1020B000F601922F30E3992319F031939150FBCF21
:1020C000C20ED11C20E09F2D940F3A81782F7071A1
:1020D000A72E84FF03C0313309F49150191624F45C
:1020E000993018F098E001C091E0E42F852F57FF58
:1020F00002C0E0E080E06E2F782FE0E0F0E0AEE29A
:102100009A2E3A01691A71082A01461A570A0B2DAC
:1021100010E01195019511096F3F8FEF780729F4B1
:10212000D6019C92C60101966C014617570784F0B0
:10213000661677066CF47F01E40CF51CA1E0B0E0B4
:10214000AC0FBD1FEA0EFB1ED7011196BC9002C05A
:1021500090E3B92E615071093196C60101967C0158
:102160006017710724F0D601BC926C01D5CF6417BB
:10217000750741F4363320F4353321F4A11002C041
:1021800081E3B82EF601B082F701822F90E2882316
:1021900019F091938150FBCFF701E20FF11D1082EE
:1021A00080E090E029960FB6F894DEBF0FBECDBF59
:1021B000DF91CF911F910F91FF90EF90DF90CF9023
:1021C000BF90AF909F907F906F905F904F900895D9
:1021D000283008F027E03327DA01990F311D87FDF9
:1021E000916000966105710539F432602E5F3D9370
:1021F00030E32A95E1F708959F3F30F0803871056C
:10220000610509F03C5F3C5F3D93913008F08068C8
:10221000911DDF93CF931F930F93FF92EF92192F8E
:10222000987F9695E92F96959695E90FFF27EE539F
:10223000FF4F99273327EE24FF24A701E7010590DC
:102240000894079428F4360FE71EF81E491F511D05
:10225000660F771F881F991F0694A1F705900794B2
:1022600028F4E70EF81E491F561FC11D770F881F5F
:10227000991F661F0694A1F70590079428F4F80E9D
:10228000491F561FC71FD11D880F991F661F771F33
:102290000694A1F70590079420F4490F561FC71F15
:1022A000D81F990F661F771F881F0694A9F784917E
:1022B0001095177041F0D695C79557954795F794A7
:1022C000E7941A95C1F7E8E6F0E068941590159147
:1022D00035916591959105907FE27395E118F10A2A
:1022E000430B560BC90BD009C0F7E10CF11E431F7D
:1022F000561FC91FD01D7EF4703311F48A95E6CFA6
:10230000E894015030F0080F0AF40027021708F48F
:10231000202F2395022F7A3328F079E37D932A9595
:10232000E9F710C07D932A9589F6069497956795ED
:10233000379517951794E118F10A430B560BC90B03
:10234000D00998F023957E9173957A3308F070E365
:102350007C932013B8F77E9170617D9330F0839564
:1023600071E37D9370E32A95E1F71124EF90FF90DC
:102370000F911F91CF91DF91992787FD9095089537
:102380000E94021208F481E00895E89409C097FBC6
:102390003EF490958095709561957F4F8F4F9F4F3C
:1023A0009923A9F0F92F96E9BB279395F695879580
:1023B00077956795B795F111F8CFFAF4BB0F11F443
:1023C00060FF1BC06F5F7F4F8F4F9F4F16C08823EA
:1023D00011F096E911C0772321F09EE8872F762F20
:1023E00005C0662371F096E8862F70E060E02AF061
:1023F0009A95660F771F881FDAF7880F969587954D
:1024000097F90895990F0008550FAA0BE0E8FEEF21
:1024100016161706E807F907C0F012161306E407A8
:10242000F50798F0621B730B840B950B39F40A26A1
:1024300061F0232B242B252B21F408950A2609F47F
:10244000A140A6958FEF811D811D08950E9439122C
:102450000C94AA120E949C1238F00E94A31220F041
:10246000952311F00C9493120C94991211240C944E
:10247000DE120E94BB1270F3959FC1F3950F50E0DE
:10248000551F629FF001729FBB27F00DB11D639F26
:10249000AA27F00DB11DAA1F649F6627B00DA11DCC
:1024A000661F829F2227B00DA11D621F739FB00D72
:1024B000A11D621F839FA00D611D221F749F3327E2
:1024C000A00D611D231F849F600D211D822F762F7B
:1024D0006A2F11249F5750409AF0F1F088234AF058
:1024E000EE0FFF1FBB1F661F771F881F91505040C4
:1024F000A9F79E3F510580F00C9493120C94DE12C4
:102500005F3FE4F3983ED4F3869577956795B7954A
:10251000F795E7959F5FC1F7FE2B880F911D969564
:10252000879597F9089597F99F6780E870E060E0D4
:1025300008959FEF80EC089500240A94161617065C
:1025400018060906089500240A94121613061406A4
:1025500005060895092E0394000C11F4882352F007
:10256000BB0F40F4BF2B11F460FF04C06F5F7F4FBF
:102570008F4F9F4F089557FD9058440F551F59F0A6
:102580005F3F71F04795880F97FB991F61F09F3F60
:1025900079F087950895121613061406551FF2CF89
:1025A0004695F1DF08C0161617061806991FF1CFD9
:1025B00086957105610508940895E894BB27662700
:1025C0007727CB0197F908952F923F924F925F9210
:1025D0006F927F928F929F92AF92BF92CF92DF9233
:1025E000EF92FF920F931F93CF93DF93CDB7DEB798
:1025F000CA1BDB0B0FB6F894DEBF0FBECDBF09942C
:102600002A88398848885F846E847D848C849B8482
:10261000AA84B984C884DF80EE80FD800C811B8190
:10262000AA81B981CE0FD11D0FB6F894DEBF0FBEBF
:10263000CDBFED0108955058BB27AA270E94331340
:102640000C94AA120E949C1238F00E94A31220F04F
:1026500039F49F3F19F426F40C9499120EF4E09586
:10266000E7FB0C949312E92F0E94BB1258F3BA17A0
:10267000620773078407950720F079F4A6F50C9498
:10268000DD120EF4E0950B2EBA2FA02D0B01B9012F
:1026900090010C01CA01A0011124FF27591B99F0D8
:1026A000593F50F4503E68F11A16F040A22F232FE4
:1026B000342F4427585FF3CF469537952795A79534
:1026C000F0405395C9F77EF41F16BA0B620B730BDB
:1026D000840BBAF09150A1F0FF0FBB1F661F771F4C
:1026E000881FC2F70EC0BA0F621F731F841F48F401
:1026F000879577956795B795F7959E3F08F0B0CF8A
:102700009395880F08F09927EE0F97958795089570
:102710000E949C130C94AA120E94A31258F00E94CB
:102720009C1240F029F45F3F29F00C949312511150
:102730000C94DE120C9499120E94BB1268F3992338
:10274000B1F3552391F3951B550BBB27AA276217AD
:102750007307840738F09F5F5F4F220F331F441FBA
:10276000AA1FA9F335D00E2E3AF0E0E832D09150EE
:102770005040E695001CCAF72BD0FE2F29D0660FDB
:10278000771F881FBB1F261737074807AB07B0E81E
:1027900009F0BB0B802DBF01FF2793585F4F3AF024
:1027A0009E3F510578F00C9493120C94DE125F3F1B
:1027B000E4F3983ED4F3869577956795B795F795AA
:1027C0009F5FC9F7880F911D9695879597F9089592
:1027D000E1E0660F771F881FBB1F6217730784072E
:1027E000BA0720F0621B730B840BBA0BEE1F88F73D
:1027F000E09508950E9401146894B1110C94DE12C2
:1028000008950E94C31288F09F5798F0B92F992716
:10281000B751B0F0E1F0660F771F881F991F1AF0CB
:10282000BA95C9F714C0B13091F00E94DD12B1E041
:1028300008950C94DD12672F782F8827B85F39F040
:10284000B93FCCF3869577956795B395D9F73EF464
:1028500090958095709561957F4F8F4F9F4F08950C
:102860000E94021208F48FEF0895EE0FFF1F0590EB
:10287000F491E02D0994CF93DF938230910510F409
:1028800082E090E0E091A002F091A10220E030E02F
:10289000C0E0D0E0309711F14081518148175907CD
:1028A000C0F04817590761F482819381209719F08D
:1028B0009B838A832BC09093A1028093A00226C0A1
:1028C0002115310519F04217530718F49A01BE017A
:1028D000DF01EF010280F381E02DDCCF211531050E
:1028E00009F1281B390B2430310590F412968D9193
:1028F0009C9113976115710521F0FB0193838283ED
:1029000004C09093A1028093A002FD01329644C0BE
:10291000FD01E20FF31F81939193225031092D9312
:102920003C933AC020919E0230919F02232B41F4A8
:10293000209102013091030130939F0220939E0267
:1029400020910001309101012115310541F42DB78D
:102950003EB74091040150910501241B350BE091D5
:102960009E02F0919F02E217F307A0F42E1B3F0B8B
:102970002817390778F0AC014E5F5F4F24173507F1
:1029800048F04E0F5F1F50939F0240939E02819329
:10299000919302C0E0E0F0E0CF01DF91CF91089584
:1029A0000F931F93CF93DF93009709F48CC0FC0122
:1029B0003297138212820091A0021091A102011598
:1029C000110581F420813181820F931F20919E0295
:1029D00030919F022817390779F5F0939F02E09311
:1029E0009E0271C0D80140E050E0AE17BF0750F41E
:1029F00012962D913C911397AD012115310509F1E6
:102A0000D901F3CF9D01DA01338322836081718183
:102A1000860F971F8217930769F4EC01288139818B
:102A2000260F371F2E5F3F4F318320838A819B8182
:102A300093838283452B29F4F093A102E093A002B3
:102A400042C01396FC93EE931297ED014991599170
:102A50009E01240F351FE217F30771F480819181E5
:102A6000840F951F029611969C938E938281938179
:102A700013969C938E931297E0E0F0E0D8011296A3
:102A80008D919C911397009719F0F8018C01F6CF66
:102A90008D919C9198012E5F3F4F820F931F209143
:102AA0009E0230919F022817390769F4309729F464
:102AB0001092A1021092A00202C0138212821093FF
:102AC0009F0200939E02DF91CF911F910F91089575
:102AD000A0E0B0E0EEE6F5E10C94E812EC0100971E
:102AE00021F4CB010E943B14B8C0FC01E60FF71F94
:102AF0009C0122503109E217F30708F4ACC0D90158
:102B00000D911C91119706171707B0F005301105AC
:102B100008F49FC0C80104978617970708F499C066
:102B200002501109061B170B019311936D937C93AF
:102B3000CF010E94D0148DC05B01A01AB10A4C01D4
:102B4000800E911EA091A002B091A10240E050E041
:102B5000E12CF12C109709F44AC0A815B905D1F55C
:102B60006D907C901197630182E0C80ED11CCA144D
:102B7000DB0480F1A3014A195B096A0182E0C80EF7
:102B8000D11C1296BC9012971396AC91B5E0CB165F
:102B9000D10440F0B282A38351834083D9016D9365
:102BA0007C930AC00E5F1F4FC301800F911FF90174
:102BB00091838083EB2DFA2FE114F10431F0D701DA
:102BC0001396FC93EE93129744C0F093A102E09306
:102BD000A0023FC08D919C9111974817590708F4A6
:102BE000AC017D0112960D90BC91A02DB3CF8091C8
:102BF0009E0290919F0288159905E1F446175707A8
:102C0000C8F48091000190910101009741F48DB7C3
:102C10009EB74091040150910501841B950BE81764
:102C2000F907C8F4F0939F02E0939E02F9017183C3
:102C300060830FC0CB010E943B147C01009759F0C8
:102C4000A801BE010E943716CE010E94D014C70110
:102C500004C0CE0102C080E090E0CDB7DEB7EEE068
:102C60000C94041381E090E0F8940C945016FB014E
:102C7000DC0102C001900D9241505040D8F70895F8
:102C8000FB01DC018D91019080190110D9F3990BA2
:102C90000895FB01DC0101900D920020E1F70895F9
:102CA00010E0CFEDD0E004C0FE010E943514219663
:0A2CB000C03ED107C9F7F894FFCF2A
:102CBA000000A202800000000000390900000000A4
:102CCA00D70800000000BE03B90300000000ED0CA5
:102CDA00DE0CAF03FEFF0000FA0CEA0C0000000055
:102CEA007B087B087B08000000001C07000000002E
:102CFA000A01D80200000000AB0110010000000028
:102D0A003D024B02000000000A02C303000000005B
:102D1A00BD072607550704088607640778070000D9
:102D2A0000006408260857656C636F6D6520686F3C
:102D3A006D65004F50454E00417661696C61626C69
:102D4A006520636F6D6D616E643A204F50454E2C5D
:102D5A002053544F50004F4B00544F4F204641527E
:102D6A000044697374616E63653A20004F4B2043D7
:102D7A00414E2053544F5000544F554348494E47F3
:042D8A00000D0A002E
:00000001FF
